:020000040800F2
:10000000680700206D0100082D160008E50A0008A9
:100010002916000865020008191B000800000000EE
:10002000000000000000000000000000D1170008E0
:10003000690200080000000031160008ED180008F1
:100040008701000887010008870100088701000870
:10005000870100088701000849030008C50300085C
:100060008701000887010008870100088701000850
:100070008701000887010008870100088701000840
:100080008701000887010008870100088701000830
:100090008701000887010008870100088701000820
:1000A0008701000887010008870100088701000810
:1000B0008701000887010008870100088701000800
:1000C00087010008870100088701000887010008F0
:1000D000870100082D1A0008870100088701000821
:1000E00099030008870100088701000800F002F862
:1000F00000F02CF80AA090E8000C82448344AAF196
:100100000107DA4501D100F021F8AFF2090EBAE893
:100110000F0013F0010F18BFFB1A43F0010318473B
:10012000543300006433000000230024002500261F
:10013000103A28BF78C1FBD8520728BF30C148BF4A
:100140000B6070471FB51FBD10B510BD00F050F813
:100150001146FFF7F7FF01F0E1FC00F06EF803B481
:10016000FFF7F2FF03BC00F075F800000948804774
:1001700009480047FEE7FEE7FEE7FEE7FEE7FEE789
:10018000FEE7FEE7FEE7FEE704480549054A064BA1
:10019000704700001D190008ED00000868010020EC
:1001A00068070020680300206803002010B5431C86
:1001B00002E010F8011B71B18107FAD14FF0013252
:1001C00002C88C1A8C4314EAC211F9D0C01A0A066C
:1001D00003D0C01E10BDC01A10BD0A0401D0801E7D
:1001E00010BD0902FCD0401E10BD7047704770471B
:1001F000754600F02BF8AE4605006946534620F0E0
:100200000700854618B020B5FFF7BEFFBDE82040C7
:100210004FF000064FF000074FF000084FF0000BC2
:10022000AC46ACE8C009ACE8C009ACE8C009ACE831
:10023000C00921F007018D46704710B50446AFF3A1
:1002400000802046BDE81040FFF789BF0048704796
:100250000000002001491820ABBEFEE72600020086
:1002600070470000FEE700007047000010B500284E
:1002700008BF10BD4EF2100141F6401CCEF2000145
:10028000C0F2010C4FF0000E05220423C1F804C097
:10029000C1F808E00A6000BF0C68E403FCD501382F
:1002A0000B60F3D110BD00002DE9F04184B004468D
:1002B0004FF6FF704FF6FF7800F016FC40F2D006C4
:1002C000C2F2000632881F27002000211423009765
:1002D00000F056FC73883288A3F1140081B200202C
:1002E000009700F04DFC40F26600C2F200004FF0B3
:1002F000FF31018001271025002002214FF6FF72F7
:100300001F23CDE90045029700F0C2FB708842F63A
:1003100026011238C0F60001CDE9001581B2002097
:100320004FF6FF721F23029700F0B2FB70883288ED
:10033000143883B200201421CDF8008000F020FC96
:1003400004B0BDE8F081000010B540F26400C2F2D4
:10035000000064210180012000F062F8012818BF2C
:1003600010BD40F60044C4F201042046012100F013
:1003700061F958B92046022100F05CF930B940F229
:100380006200C2F200000188013901800120BDE84D
:10039000104000F03FB8000080B54FF4804000F0FE
:1003A0003FF8012818BF80BD40F26001C2F2000191
:1003B0000888421C4FF480400A80BDE8804000F06D
:1003C00029B8000010B540F26400C2F200006421B8
:1003D0000180022000F024F8012818BF10BD40F66B
:1003E0000044C4F201042046022100F023F958B968
:1003F0002046012100F01EF930B940F26200C2F23D
:1004000000000188013101800220BDE8104000F0A9
:1004100001B8000040F21441C4F2010108607047C5
:1004200040F20041C4F201010A68496902400840F3
:1004300018BF0120002A18BF012210407047000099
:1004400070B584B042F61000C0F60000FFF72CFF34
:1004500042F2E6700C26C0F600000024CDE900064A
:100460000A201E211F224FF6E073029401F0C2F908
:1004700042F2BC70C0F600000125CDE900060A205A
:100480002D211F224FF6E073029501F0B3F942F2DD
:100490009E70C0F60000CDE900060A203C211F2214
:1004A0004FF6E073029401F0A5F9102613A0CDE9F0
:1004B00000060A2050211F224FF6E073029401F03B
:1004C00099F919A000900A2064211F224FF6E073C9
:1004D0000295019601F08EF91EA0CDE900060A20D2
:1004E00078211F224FF6E073029401F083F94FF454
:1004F000966004B0BDE87040FFF7B8BE385831369A
:100500003A6162636465666768696A6B6C6D6E6F99
:10051000707172737475767778797A3031323334DA
:100520003536373839000000385831363A414243C1
:100530004445464748494A4B4C4D4E4F5051525303
:100540005455565758595A30313233343536373876
:1005500039000000385831363A7E21402324255E88
:10056000262A28295F2B7B7D3A3C3E3F2F7C2D2B72
:100570002E0000002DE9F047CA7802F00F0CD306D8
:1005800044BF8B784CEA030C09880B0625D08246C1
:100590005AF8144B00F1100E00254FF001094FF0EE
:1005A0000F08002706E000BF1E600137082F05F185
:1005B000040511D009FA07F60E42F6D008FA05F341
:1005C00024EA03030CFA05F41C43282A5346EBD013
:1005D000482AEAD17346E7E70460B1F5807F38BF67
:1005E000BDE8F087436800F1100E00F11409002502
:1005F0004FF4807A4FF00F08002705E03460013790
:10060000082F05F1040512D00AFA07F404EA0106DE
:10061000A642F4D108FA05F6B3430CFA05F63343C3
:10062000282A4E46EAD0482AE9D17646E6E74360D2
:10063000BDE8F0878068084018BF012070470000BF
:100640001023002A08BF1423C15070472DE9F04F32
:1006500087B004930591DDE910C440F6104642F6D8
:10066000270393460746C4F201060025C0F600039F
:100670004FF4006901460690CDF800C00BE000BFC2
:10068000019DDDF800C0013542F627033E2DC0F67E
:10069000000300F0808005EB051013F810109CF8A3
:1006A000002001959142EBD103EB400898F801003E
:1006B0009CF801108842E3D1059907F10F0201F17E
:1006C0000F03B8B289B292B29BB200F05BFE40F267
:1006D00066050020C2F20005CDF8088006E000BFE4
:1006E0000398DDF8088001302028C9D003904044E9
:1006F00000F102084FF0000A1BE000BF4FF48061D8
:10070000C6F80490316000065D46049858BF05465F
:10071000280A00F0C5FFE8B240F26605C2F2000503
:1007200000F0BEFFC6F800900AF1010ABAF1080F06
:10073000D6D098F80000002C00FA0AF0DED00006AF
:10074000A5F800B01CD50599B8B289B202460B468F
:1007500000F018FE40F26600C2F2000005884FF477
:100760008060C6F804903060280A00F099FFE8B273
:1007700040F26605C2F2000500F092FFC6F8009054
:1007800001370699B8B2401A1028CDD1059801302A
:100790000590069FA4E740F2D000C2F20000018855
:1007A0004088013901388AB283B20020002107B0A5
:1007B000BDE8F04F00F0E6BD2DE9F04F87B004939F
:1007C0000591DDE910C440F6104643F263059346F7
:1007D0000746C4F201060023C0F600054A224FF482
:1007E000006901460690CDF800C00BE0019BDDF8E2
:1007F00000C0013343F26305072BC0F600054FF03C
:100800004A027ED003FB02F0285C9CF800100193A2
:100810008842EBD103FB02589CF8011098F80100C4
:100820008842E3D1059907F1170201F11703B8B225
:1008300089B292B29BB200F0A5FD40F2660500209D
:10084000C2F20005CDF8088006E000BF0398DDF88D
:10085000088001304828C9D00390404400F10208C4
:100860004FF0000A1BE000BF4FF48061C6F804900F
:10087000316000065D46049858BF0546280A00F01E
:100880000FFFE8B240F26605C2F2000500F008FF73
:10089000C6F800900AF1010ABAF1080FD6D098F80C
:1008A0000000002C00FA0AF0DED00006A5F800B027
:1008B0001CD50599B8B289B202460B4600F062FD1C
:1008C00040F26600C2F2000005884FF48060C6F86E
:1008D00004903060280A00F0E3FEE8B240F26605BA
:1008E000C2F2000500F0DCFEC6F800900137069960
:1008F000B8B2401A1828CDD1059801300590069F4E
:10090000A4E740F2D000C2F200000188408801391B
:1009100001388AB283B20020002107B0BDE8F04F51
:1009200000F030BD2DE9F04F87B004930591DDE96B
:1009300010C440F6104643F2692393460746C4F2BA
:1009400001060025C0F600034FF400690146069039
:10095000CDF800C00BE000BF019DDDF800C00135FF
:1009600043F26923042DC0F6000300F0808005EBFC
:10097000851013F810109CF8002001959142EBD1DE
:1009800003EB400898F801009CF801108842E3D17D
:10099000059907F11F0201F11F03B8B289B292B2A3
:1009A0009BB200F0EFFC40F266050020C2F20005A9
:1009B000CDF8088006E000BF0398DDF8088001301C
:1009C0008028C9D00390404400F102084FF0000A8B
:1009D0001BE000BF4FF48061C6F804903160000650
:1009E0005D46049858BF0546280A00F059FEE8B253
:1009F00040F26605C2F2000500F052FEC6F8009013
:100A00000AF1010ABAF1080FD6D098F80000002CBC
:100A100000FA0AF0DED00006A5F800B01CD5059952
:100A2000B8B289B202460B4600F0ACFC40F2660058
:100A3000C2F2000005884FF48060C6F80490306070
:100A4000280A00F02DFEE8B240F26605C2F2000569
:100A500000F026FEC6F8009001370699B8B2401A99
:100A60002028CDD1059801300590069FA4E740F2DB
:100A7000D000C2F2000001884088013901388AB2F2
:100A800083B20020002107B0BDE8F04F00F07ABC2F
:100A90002DE9F04383B00DF1280999E840031C4685
:100AA000304615460F46FFF781FB40F2D001C2F2F7
:100AB00000014FF6F8720988C0F2070202EAC0008E
:100AC000081A00EBD070C0F34F0039462A4623467F
:100AD000CDE90068CDF8089000F08CFE03B0BDE8C9
:100AE000F0830000FEE700002DE9F04F81B040F2F6
:100AF000D008C2F200080546B8F80000B8F80210A5
:100B00000138013940F6104682B28BB20020002134
:100B1000C4F2010600F036FC4FF4006B4FF480691C
:100B2000C6F804B0C6F80090B8F8020010B32C0A5A
:100B30004FF0000AEDB205E0B8F802000AF1010A30
:100B4000824517D2B8F800000028F5D0002700BF72
:100B50002046C6F804B0C6F8009000F0A1FD284673
:100B600000F09EFDC6F800B0B8F8000001378742DB
:100B7000EED3E1E7C6F800B001B0BDE8F08F0000A9
:100B80002DE9F0470546581ADDF82080461C284616
:100B9000144600F0F7FB300424D0601B013040F60F
:100BA000104781B2B2B2C4F201074FEA182901FB23
:100BB00002F506044FF400644FF4806A012D98BFDB
:100BC000012501E0013D0DD0002EFBD048467C60A0
:100BD000C7F800A000F064FD5FFA88F000F060FD47
:100BE0003C60EFE740F2D000C2F20000018840888C
:100BF000013901388AB283B200200021BDE8F047F4
:100C000000F0C0BB2DE9F04F81B040F6144A40F629
:100C10001048C4F2010AC4F2010800F08BFD08205C
:100C20000121012400F026FD41F60060C1F203001D
:100C30000090A8F110006946FFF79CFC4FF60440B5
:100C4000CFF6FF70102548F800506420FFF70EFB28
:100C50004FF60040CFF6FF7048F800503220FFF703
:100C600005FB4FF400664FF4806BCF20CAF800609C
:100C7000CAF800B000F014FD0020C8F80060CAF8FF
:100C80000060C8F800B000F00BFDD920C8F8006083
:100C9000CAF80060C8F800B000F002FD3020C8F8C3
:100CA0000060CAF80060C8F800B000F0F9FCED2060
:100CB000C8F80060CAF80060CAF800B000F0F0FCA4
:100CC0006420C8F80060CAF80060C8F800B000F0FE
:100CD000E7FC0320C8F80060CAF80060C8F800B05C
:100CE00000F0DEFC1220C8F80060CAF80060C8F806
:100CF00000B000F0D5FC8120C8F80060CAF80060A0
:100D0000C8F800B000F0CCFCE820C8F80060CAF8D1
:100D10000060CAF800B000F0C3FC8520C8F800608D
:100D2000CAF80060C8F800B000F0BAFC1020C8F89B
:100D30000060CAF80060C8F800B000F0B1FC7A208A
:100D4000C8F80060CAF80060C8F800B000F0A8FC5D
:100D5000CB20C8F80060CAF80060CAF800B000F004
:100D60009FFC3920C8F80060CAF80060C8F800B0DD
:100D700000F096FC2C20C8F80060CAF80060C8F8A3
:100D800000B000F08DFC0020C8F80060CAF80060D8
:100D9000C8F800B000F084FC3420C8F80060CAF83D
:100DA0000060C8F800B000F07BFC0220C8F80060CA
:100DB000CAF80060C8F800B000F072FCF720C8F86C
:100DC0000060CAF80060CAF800B000F069FC20209A
:100DD000C8F80060CAF80060C8F800B000F060FC15
:100DE000EA20C8F80060CAF80060CAF800B000F055
:100DF00057FC0020C8F80060CAF80060C8F800B0CE
:100E000000F04EFC0020C8F80060CAF80060C8F886
:100E100000B000F045FCC020C8F80060CAF80060CF
:100E2000CAF800B000F03CFC1B20C8F80060CAF80B
:100E30000060C8F800B000F033FCC120C8F80060C2
:100E4000CAF80060CAF800B000F02AFC1220C8F806
:100E50000060CAF80060C8F800B000F021FCC520AE
:100E6000C8F80060CAF80060CAF800B000F018FCCA
:100E70000820C8F80060CAF80060C8F800B000F0A8
:100E80000FFC2620C8F80060CAF80060C8F800B05F
:100E900000F006FCC720C8F80060CAF80060CAF875
:100EA00000B000F0FDFBB720C8F80060CAF8006091
:100EB000C8F800B000F0F4FB3620C8F80060CAF8AB
:100EC0000060CAF800B000F0EBFB0820C8F8006032
:100ED000CAF80060C8F800B000F0E2FB3A20C8F899
:100EE0000060CAF80060CAF800B000F0D9FB5520D5
:100EF000C8F80060CAF80060C8F800B000F0D0FB85
:100F0000B120C8F80060CAF80060CAF800B000F06C
:100F1000C7FB0020C8F80060CAF80060C8F800B03D
:100F200000F0BEFB1A20C8F80060CAF80060C8F8DC
:100F300000B000F0B5FBB620C8F80060CAF8006049
:100F4000CAF800B000F0ACFB0A20C8F80060CAF88C
:100F50000060C8F800B000F0A3FBA220C8F8006051
:100F6000CAF80060C8F800B000F09AFBF220C8F898
:100F70000060CAF80060CAF800B000F091FB0020E1
:100F8000C8F80060CAF80060C8F800B000F088FB3C
:100F90002620C8F80060CAF80060CAF800B000F067
:100FA0007FFB0120C8F80060CAF80060C8F800B0F4
:100FB00000F076FBE020C8F80060CAF80060CAF8CC
:100FC00000B000F06DFB0F20C8F80060CAF80060A8
:100FD000C8F800B000F064FB1D20C8F80060CAF833
:100FE0000060C8F800B000F05BFB1A20C8F8006091
:100FF000CAF80060C8F800B000F052FB0A20C8F838
:101000000060CAF80060C8F800B000F049FB0D208D
:10101000C8F80060CAF80060C8F800B000F040FBF3
:101020000720C8F80060CAF80060C8F800B000F0F7
:1010300037FB4920C8F80060CAF80060C8F800B063
:1010400000F02EFB6620C8F80060CAF80060C8F8FF
:1010500000B000F025FB3B20C8F80060CAF8006033
:10106000C8F800B000F01CFB0720C8F80060CAF800
:101070000060C8F800B000F013FB1120C8F8006051
:10108000CAF80060C8F800B000F00AFB0120C8F8F8
:101090000060CAF80060C8F800B000F001FB092049
:1010A000C8F80060CAF80060C8F800B000F0F8FAAC
:1010B0000520C8F80060CAF80060C8F800B000F069
:1010C000EFFA0420C8F80060CAF80060C8F800B061
:1010D00000F0E6FAE120C8F80060CAF80060CAF83B
:1010E00000B000F0DDFA0020C8F80060CAF8006027
:1010F000C8F800B000F0D4FA1820C8F80060CAF8A8
:101100000060C8F800B000F0CBFA1D20C8F80060FD
:10111000CAF80060C8F800B000F0C2FA0220C8F8AF
:101120000060CAF80060C8F800B000F0B9FA0F20FB
:10113000C8F80060CAF80060C8F800B000F0B0FA63
:101140000420C8F80060CAF80060C8F800B000F0D9
:10115000A7FA3620C8F80060CAF80060C8F800B0E6
:1011600000F09EFA1320C8F80060CAF80060C8F8C2
:1011700000B000F095FA4C20C8F80060CAF8006092
:10118000C8F800B000F08CFA0720C8F80060CAF870
:101190000060C8F800B000F083FA1320C8F80060BF
:1011A000CAF80060C8F800B000F07AFA0F20C8F85A
:1011B0000060CAF80060C8F800B000F071FA2E2094
:1011C000C8F80060CAF80060C8F800B000F068FA1B
:1011D0002F20C8F80060CAF80060C8F800B000F01E
:1011E0005FFA0520C8F80060CAF80060C8F800B0CF
:1011F00000F056FA2B20C8F80060CAF80060CAF860
:1012000000B04FF02B0900F04BFA0020C8F8006046
:10121000CAF80060C8F800B000F042FA0020C8F830
:101220000060CAF80060C8F800B000F039FA012088
:10123000C8F80060CAF80060C8F800B000F030FAE2
:101240003F20C8F80060CAF80060C8F800B000F09D
:1012500027FA2A20C8F80060CAF80060CAF800B06F
:1012600000F01EFA0020C8F80060CAF80060C8F854
:1012700000B000F015FA0020C8F80060CAF800605D
:10128000C8F800B000F00CFA0020C8F80060CAF8F6
:101290000060C8F800B000F003FAEF20C8F8006062
:1012A000CAF80060C8F800B000F0FAF91120C8F8D8
:1012B0000060CAF80060CAF800B000F0F1F97820C8
:1012C000C8F80060FEF7D2FF2920CAF80060CAF80B
:1012D00000B000F0E5F940F2D0052C20C2F2000584
:1012E000C0F22A00C8F80060A860F020C0F24010E8
:1012F00028603620A5F80C90CAF80060CAF800B043
:1013000000F0CEF90820C8F80060CAF80060C8F8FC
:1013100000B000F0C5F948F2A410C4F22120C8F8CA
:1013200000600460288869880138013982B28BB274
:101330000020002100F026F8CAF80060C8F800B0CC
:101340006888D0B1002703E068880137874214D24B
:1013500028880028F8D00024FF20CAF80060C8F8C8
:1013600000B000F09DF9FF2000F09AF9C8F8006085
:10137000288801348442EFD3E6E7C8F8006001B062
:10138000BDE8F08F2DE9F04F81B040F2D00AC2F2F3
:10139000000A07469AF80A0040F61044C4F2010415
:1013A0004FF400654FF48066984693468946656021
:1013B000666000F075F9380A25606560266000F007
:1013C0006FF9F8B225606560266000F069F94FEAB0
:1013D0001B2025606560266000F062F95FFA8BF0E3
:1013E00025606560266000F05BF925609AF80C00C6
:1013F0006560666000F054F94FEA19202560656069
:10140000266000F04DF95FFA89F02560656026607E
:1014100000F046F94FEA182025606560266000F06C
:101420003FF95FFA88F025606560266000F038F9C2
:1014300025609AF808006560666000F031F9256063
:1014400001B0BDE8F08F00002DE9F04F89B0934660
:1014500040F2660212AEC2F200029A4658CEB2F8CC
:10146000008000EB5402571E0A19A3F12009531EF5
:10147000BAB29BB20746650807900F460491FFF782
:1014800081FF002E0594CDF8048069D0002C00F077
:10149000B3805FFA89F0002141F63A52069100EBE1
:1014A0004001C0F6000202EB8101039142F2AE114D
:1014B000C0F6000101EB00104FF40068029006E056
:1014C0000698059C0130A042069000F0958040F2FD
:1014D0006607012CC2F20007F2D0069A029805991D
:1014E00010440C29039908BF881890F800A00498AC
:1014F000002610440890002006E000BF01364FEAA5
:101500005A0AB542F0B2DBD95FEACA71A7F800B057
:10151000F4D007990844089980B289B202460B4674
:10152000FFF730FF40F26600C2F20000B0F8009012
:1015300040F61044C4F201044FF48060C4F8048003
:1015400020604FEA192000F0ABF85FFA89F040F212
:101550006607C2F2000700F0A3F8C4F80080CDE7E8
:10156000002C49D05FFA89F0002141F63A520891E7
:1015700000EB4001C0F6000202EB8101079142F24C
:10158000AE1140F61046C0F60001C4F2010601EBB0
:1015900000104FF400694FF48063069006E000BF2E
:1015A0000898059C0130A042089025D0012CF7D066
:1015B000089A0698059910440C29079908BF8818BD
:1015C00007784FF0000800BFF8075C46C6F80490A3
:1015D000336008BF5446200A00F062F8E0B200F021
:1015E0005FF808F101084FF4806345454FEA57075B
:1015F000C6F80090E8D8D3E740F2D000C2F200006D
:101600000188408840F26607019E01390138C2F224
:1016100000078AB283B2002000213E8009B0BDE8F5
:10162000F04FFFF7AFBE0000FEE70000704700007C
:10163000EFF30980BFF36F8F0D4B1A6820E9F00FAD
:1016400010602DE908404FF0BF0080F3118800F0D2
:101650006BFA4FF0000080F31188BDE8084019686C
:101660000868B0E8F00F80F30988BFF36F8F704708
:10167000E0000020002941F21801C4F202010A68CA
:101680000CBF22EA0000104308607047028800295E
:1016900018BF012122F0400242EA81110180704707
:1016A000B0B543F200040546C4F20104204602210D
:1016B00000F012F80128F9D12046294600F014F86C
:1016C0002046012100F008F80128F9D1204600F059
:1016D00009F8C0B2B0BD00000089084018BF012061
:1016E0007047000080897047818170472DE9F04183
:1016F00002880B8802F4415C4A88B1F804E043EAAE
:101700000C03CC881A430D8942EA0E024E8922430B
:101710008F892A43B1F80E8032433A4342EA0802E5
:101720000280828B22F400628283098A0182BDE8F2
:10173000F0810000B0B586B004200121FFF79AFFC8
:10174000A02040F60004C1F60300C4F2010405AD78
:10175000059020462946FEF70DFF1020C1F2030038
:10176000059020462946FEF705FF4020C4F60300F9
:10177000059020462946FEF7FDFE4FF480500121DA
:10178000FFF778FF4FF48270CDF802004FF400703D
:10179000ADF80A000020ADF80000CDF80600039077
:1017A000072004F52055ADF8100069462846FFF7DC
:1017B0009DFF28460121FFF769FF204610210122E5
:1017C000FEF73EFF06B0B0BD0000000000000000C4
:1017D000074B19680868B0E8F00F80F30988BFF379
:1017E0006F8F4FF0000080F311884EF00D0E7047A0
:1017F000E00000202DE9F04F85B00E9F93463A7827
:101800000390002A6ED00F9C40F2D0086008DDF8EB
:101810000CA099460E4604900020C2F200080CE08D
:10182000109D5A464B4600970195FEF70FFF023771
:10183000A24400203A78002A54D0B8F800100028BA
:101840001FFA8AF014D0091B81424BDBB8F8022042
:10185000B1B2121B8A4245DB182C18D0202CDFD1E4
:10186000109D5A464B4600970195FFF75BF8DEE75F
:10187000049BC91A814235DBB8F80230B1B21B1B98
:101880008B422FDBD2B2802A09D90120D2E7109DEA
:101890005A464B4600970195FEF78EFFC7E70D2A83
:1018A00005D10137DDF80CA026440137C1E7112C22
:1018B0000CD300921022109D01925A464B4602957D
:1018C000FFF7C2FD0AF1080A0137B2E7109DCDE922
:1018D00000245A464B460295FFF7B6FD049801379F
:1018E0008244A6E705B0BDE8F08F000080B54FF058
:1018F000BF0080F31188BFF36F8FBFF34F8F00F0ED
:1019000049F930B14EF60450CEF200004FF080514C
:101910000160002080F3118880BD000082B041F298
:101920000400C4F2020050F8041C002241F001013E
:1019300040F8041C0168CFF6FF021140016050F826
:10194000041C4FF6FF72CFF6F662114040F8041CFB
:1019500050F8041C21F4802140F8041C016821F493
:10196000FE0101604FF41F014160002101910091CF
:1019700050F8041C41F4803140F8041C50F8041C59
:1019800001F400310091019901310191009919B9D7
:101990000199B1F5A06FF1D150F8041C890354BF2F
:1019A0000021012100910099012936D142F2000164
:1019B000C4F202010A6842F010020A600A6822F0CA
:1019C00007020A600A6842F002020A6001680160C8
:1019D00001680160016841F480610160016821F4DF
:1019E0007C110160016841F4E811016050F8041CA9
:1019F00041F0807140F8041C50F8041C8901FBD5AB
:101A0000016821F003010160016841F002010160F9
:101A1000016801F00C010829FAD14EF60850CEF207
:101A200000004FF00061016002B0704710B543F64E
:101A30000004C4F20104204640F2255100F050F8A1
:101A4000012818BF10BD204600F062F840F2CE0118
:101A5000C2F200010A78C0B2012A0BD07AB940283C
:101A60002ED10120087040F2CD00C2F2000000210A
:101A7000017025E00D2817D10220087020E00A2807
:101A80001ED10020087040F2CD01C2F20001097899
:101A900040F26902C2F20002505440F26800C2F201
:101AA0000000012101700BE040F2CD01C2F2000103
:101AB0000A7840F26903C2F200039854501C08707F
:101AC000204640F22551BDE8104000F001B800006A
:101AD000090A012202FA01F1C9430180704700009E
:101AE000C1F34212022A06D0012A14BF00F11402E7
:101AF00000F10C0201E000F110021288008801F0F0
:101B00001F03090ADA40C840104000F00100704786
:101B100080886FF35F207047FEE70000FFF772F8E0
:101B2000FEF78EFCFEE7000040F25010C2F200000B
:101B3000006830B140F26410C2F20000012101607F
:101B4000704740F26410C2F200000021016040F2D0
:101B50005410C2F200000068B0FA80F0C0B2C0F1C8
:101B60001F0040F2EC0100EB8000C2F2000101EB2B
:101B7000800050F8041F4968021D9142016001D1A4
:101B800049680160006840F2E001C068C2F20001EB
:101B9000086070472DE9F04F40F25010C2F200008B
:101BA000006848B140F26010C2F2000001880131C3
:101BB00001800020BDE8F08F40F26210C2F2000008
:101BC000018840F2581201311FFA81F98945C2F2A9
:101BD000000201801CD040F2E40040F2E803C2F2AF
:101BE0000000C2F2000301681F680760196040F23C
:101BF0005C11C2F200010B6801330B6001680968D7
:101C000019B10068C068008801E04FF6FF701080CD
:101C1000108840F2EC0A8145C2F2000A01D200208D
:101C200074E040F2E408C2F20008D8F800004FF671
:101C3000FF75006800285BD040F2541BC2F2000B15
:101C4000002025E0CA6ADBF80030012797403B43BB
:101C5000CBF8003002EB82030AEB83077D684F610B
:101C6000AC688D60CC60AC68AE6066605AF82310DA
:101C700001314AF8231040F2E001C2F20001096884
:101C8000C96AD8F800308A4288BF01201968B1B308
:101C9000D8F80010C968C9680E4636F8045FA9452F
:101CA00028D3D1E902C74D69CCF80870D5F804E013
:101CB000CF680022B645C7F804C008BF6F604A610C
:101CC0002F68013F2F608D6A002DBBD0D1E90747F7
:101CD0006B68A76001F118020F6A93424FF000028F
:101CE0007C6008BF6F608A622A68013A2A60A9E7AF
:101CF00000200AE040F25812C2F2000205E040F271
:101D00005812C2F200024FF6FF75158040F2E00152
:101D1000C2F200010968C96A01EB81015AF8211079
:101D2000012940F26411C2F2000188BF0120096854
:101D3000002918BF0120BDE8F08F0000000000005E
:101D40000000000000000000040404040404000477
:101D5000000000140A0A000000000000000000005B
:101D600014143F140A3F0A0A000000041E15050659
:101D70000C14150F0400000012150D0A142C2A1261
:101D800000000000040A0A1E1515093600000002B2
:101D900002010000000000000000002010080808F8
:101DA00008080810200000020408080808080804B1
:101DB000020000000004150E0E15040000000000D3
:101DC0000404041F040404000000000000000000DC
:101DD00000000002020100000000001F00000000DF
:101DE00000000000000000000000000200000010E1
:101DF0000808080404020202010000000E1111117B
:101E00001111110E00000000040604040404040E65
:101E1000000000000E1111080402011F0000000064
:101E20000E11100C1010110E00000000080C0A0A10
:101E3000091E0818000000001F01010F1010110EEC
:101E4000000000000E09010F1111110E000000002A
:101E50001F09080404040404000000000E11110E00
:101E60001111110E000000000E1111111E10120EA2
:101E7000000000000000040000000004000000005A
:101E80000000000400000004040000201008040208
:101E9000040810200000000000001F00001F0000C8
:101EA00000000002040810201008040200000000D6
:101EB0000E11110804040004000000000E11191591
:101EC000151D011E0000000004040C0A0A1E123336
:101ED000000000000F12120E1212120F000000007C
:101EE0001E1101010101110E000000000F1212125B
:101EF0001212120F000000001F120A0E0A02121F17
:101F0000000000001F120A0E0A0202070000000073
:101F10001C1201013911120C000000003312121EB4
:101F200012121233000000001F0404040404041FF2
:101F3000000000003E080808080808090700000023
:101F400037120A060A0A12370000000007020202CE
:101F50000202223F000000001B1B1B1B151515155C
:101F6000000000003B1216161A1A1217000000009B
:101F70000E1111111111110E000000000F12120E9E
:101F800002020207000000000E1111111117190EB4
:101F9000180000000F12120E0A1212370000000083
:101FA0001E1101060810110F000000001F15040487
:101FB0000404040E00000000331212121212120C5C
:101FC000000000003312120A0A0C04040000000092
:101FD0001515150E0A0A0A0A000000001B0A0A0459
:101FE000040A0A1B000000001B0A0A040404040E71
:101FF000000000001F0908040402121F0000001C5A
:1020000004040404040404041C0000020202040486
:10201000080808100000000E08080808080808084A
:102020000E0000040A000000000000000000000094
:102030000000000000000000003F0004000000005D
:1020400000000000000000000000000C121C123C08
:10205000000000000302020E1212120E0000000027
:102060000000001C1202021C000000001810101CCE
:102070001212123C000000000000000C121E021C94
:10208000000000003804041E0404041E00000000C8
:102090000000003C120C021E221C00000302020E73
:1020A0001212123700000000040000060404040E9F
:1020B000000000000800000C0808080808070000DD
:1020C0000302023A0A0E123700000000070404045B
:1020D0000404041F000000000000000F1515151572
:1020E000000000000000000F121212370000000074
:1020F0000000000C1212120C000000000000000F83
:102100001212120E020700000000001C1212121C14
:10211000103800000000001B06020207000000004B
:102120000000001E020C101E000000000004040E3F
:1021300004040418000000000000001B1212123CEE
:102140000000000000000037120A0C04000000002C
:1021500000000015150E0A0A000000000000001B18
:102160000A040A1B0000000000000037120A0C04D9
:10217000040300000000001E0804041E00000018F4
:1021800008080804080808081800080808080808CB
:1021900008080808080800060404040804040404E5
:1021A00006000225180000000000000000000000EA
:1021B000000000000000000000000000000000001F
:1021C000000808080808080800001818000000485F
:1021D0006C2412000000000000000000000000005D
:1021E000002424247F1212127F1212120000000019
:1021F000081C2A2A0A0C1828282A2A1C0808000069
:102200000022251515152A585454542200000000A8
:10221000000C1212120A76252911916E0000000698
:102220000604030000000000000000000000004061
:1022300020101008080808080810102040000002AC
:102240000408081010101010100808040200000004
:10225000000008086B1C1C6B080800000000000050
:102260000000080808087F080808080000000000AF
:10227000000000000000000000000606040300004B
:10228000000000000000FE00000000000000000050
:102290000000000000000000000006060000000032
:1022A00080404020201010080804040202000000B2
:1022B00000182442424242424242241800000000D8
:1022C00000080E08080808080808083E000000007A
:1022D000003C4242422020100804427E00000000E0
:1022E000003C4242201820404042221C00000000D6
:1022F00000203028242422227E20207800000000A4
:10230000007E0202021A26404042221C0000000009
:1023100000382402021A264242422418000000001B
:10232000007E22221010080808080808000000009B
:10233000003C4242422418244242423C0000000039
:1023400000182442424264584040241C000000000F
:10235000000000001818000000001818000000001D
:102360000000000000080000000000080804000051
:102370000040201008040204081020400000000063
:10238000000000007F0000007F000000000000004F
:102390000002040810204020100804020000000081
:1023A000003C424246402010100018180000000077
:1023B000001C225A555555552D42221C0000000084
:1023C000000808181414243C224242E700000000D0
:1023D000001F2222221E22424242221F0000000031
:1023E000007C4242010101010142221C0000000068
:1023F000001F2242424242424242221F000000008D
:10240000003F4212121E12120242423F0000000020
:10241000003F4212121E12120202020700000000C8
:10242000003C2222010101712122221C0000000037
:1024300000E7424242427E42424242E70000000040
:10244000003E0808080808080808083E00000000C8
:10245000007C10101010101010101010110F000040
:10246000007722120A0E0A121222227700000000C0
:1024700000070202020202020202427F0000000084
:102480000077363636362A2A2A2A2A6B00000000C0
:1024900000E346464A4A5252526262470000000038
:1024A000001C2241414141414141221C00000000E9
:1024B000003F424242423E02020202070000000088
:1024C000001C2241414141414D53321C600000003B
:1024D000003F4242423E1212222242C70000000048
:1024E000007C4242020418204042423E00000000AC
:1024F000007F4908080808080808081C00000000B8
:1025000000E74242424242424242423C0000000056
:1025100000E7424222242414141808080000000096
:10252000006B4949494955553622222200000000D6
:1025300000E7422424181818242442E70000000071
:1025400000772222141408080808081C0000000064
:10255000007E2120101008040442423F0000007851
:102560000808080808080808080808087800000093
:102570000202040408080810102020204040001E19
:102580001010101010101010101010101E00003835
:1025900044000000000000000000000000000000F7
:1025A00000000000000000000000000000FF000626
:1025B0000800000000000000000000000000000013
:1025C00000000000003C4278444242FC0000000051
:1025D00000030202021A26424242261A00000000AC
:1025E00000000000003844020202443800000000ED
:1025F0000060404040784442424264D800000000FD
:1026000000000000003C427E0202423C000000004C
:1026100000F08808087E08080808083E000000004E
:1026200000000000007C22221C023C42423C0000D0
:1026300000030202023A4642424242E70000000022
:10264000000C0C00000E08080808083E00000000FE
:10265000003030000038202020202020221E0000E2
:10266000000302020272120A161222770000000012
:10267000000E0808080808080808083E00000000C6
:1026800000000000007F9292929292B7000000003A
:1026900000000000003B4642424242E700000000CA
:1026A00000000000003C42424242423C0000000068
:1026B00000000000001B26424242221E02070000CA
:1026C00000000000007844424242447840E00000AC
:1026D0000000000000774C040404041F0000000008
:1026E00000000000007C42023C40423E000000002E
:1026F00000000008083E0808080808300000000034
:102700000000000000634242424262DC0000000020
:102710000000000000E74224241408080000000024
:102720000000000000EB494955552222000000003E
:1027300000000000007624181818246E0000000025
:102740000000000000E742242414180808070000D5
:1027500000000000007E22100808447E000000C037
:10276000202020202010202020202020C000101019
:102770001010101010101010101010101010000673
:1027800008080808081008080808080806000C329D
:10279000C2000000000000000000000000003658E9
:1027A00031323A7E21402324255E262A28295F2BB8
:1027B0007B7D3A3C3E3F2F7C2D2B2E00365831320C
:1027C0003A4142434445464748494A4B4C4D4E4F97
:1027D000505152535455565758595A303132333458
:1027E000353637383900365831323A6162636465BC
:1027F000666768696A6B6C6D6E6F70717273747501
:10280000767778797A303132333435363738390063
:10281000546573743A456E676C69736820466F6ED1
:1028200074207465737400E6B7000027FC14041468
:10283000A4811042084040104017FC2040E0E021F5
:102840005022482C4620400040E59C1104112411E0
:102850002411241124FD24112411241124112411E4
:10286000241D24E124422402040404E5B8020001EA
:102870000000007FFC0100010001003FF821082159
:1028800008210821082128211001000100E5850008
:10289000000000018002400430180860061FF901A2
:1028A00000010001003FF80100010001007FFEE58A
:1028B0008A0000000000203E20007C002200227FD1
:1028C000221022102212221222224223423D820092
:1028D0009CE7940000010001001FF0610C410441DD
:1028E000047FFC4104410441047FFC01000102011A
:1028F0000201FCE5AD000000003FF80010006000A0
:1029000080010000807FFE00400040002000200089
:102910002018400780E68A10201020102013FEFCAB
:10292000201020102015FC18843088D0481050103A
:1029300020105051882606E69C010001200110015C
:10294000107FFC038005400540092011102108413B
:10295000048102010001000100E69C02000200FF68
:10296000FE040004000FF0081018102FF048108823
:10297000100FF00810081008500820E99900007B9B
:10298000F84A08520853F8620852084BF84A444A79
:10299000486A3052204210428843064200E58500D2
:1029A00080048004800840084010202010420882E3
:1029B0000604000440082010203FF010100000E53D
:1029C0008F00003FF8000800087FE8000800081F9B
:1029D0008810881088108810881F881088002800A8
:1029E00010E6AC00800080FC8004FC050449082A45
:1029F000401440104028A024A04510811002080473
:102A0000040802E8BF00002080133C1224022402C4
:102A100024F2241224122412B41328122010202885
:102A20002047FE0000E6820900090011FC32045430
:102A3000489950114812441444114010800200512A
:102A400004511290120FF0E7BA000000201020137A
:102A5000FE202026244A247A241224222423FC7CCB
:102A600020002204227822003CE8890000000004B3
:102A7000000FF0102020207FFC2084208420842060
:102A8000843FF82000200220021FFEE5A100000084
:102A900000204023FE204079FC220423FC22042352
:102AA000FC220423FC3A0465FA01980204E585003F
:102AB00000010001007FFE02200410040808043F0A
:102AC000FC044204400440044208421042607EE795
:102AD0009F00000000207E3E804880488048FE48DD
:102AE000827F8208820C8214FA1284228021804024
:102AF000FEE5BD000000007F842208223022C022B3
:102B00000222047FC8223022C2220222042208228A
:102B1000304040E794000000007FFE00000FF011FD
:102B2000101110111051125FF25112511251124F27
:102B3000F240027FFCE59C000000007FFE47E24877
:102B400012481247E24FF2501250125112511242E3
:102B5000924472580A3FFCE59B000000003FFE448F
:102B60000247F24C225362408243625E1A41824025
:102B700062430240C240223FFCE78900000040203F
:102B800040204020403FFE2000200020003FE02069
:102B90001020102010201040104010E69800000077
:102BA000003FFC200420043FFC200420041FF824E4
:102BB000441448144814480C5004407FFEE7A40015
:102BC0000000003FFC0000000000007FFE008008C5
:102BD000900888108810842084208240820780E832
:102BE0008F0000002008207FFE002000783F881121
:102BF00008089009207FFE018003400D30310C4011
:102C000002E58D00000010081004203FF821042187
:102C1000043FFC210421043FF801007FFE01000174
:102C2000000100E4B800000100010001003FFC21A8
:102C300004210421042104210421043FFC0100019A
:102C40000001000100E88B0000000008207FFE0862
:102C500020092001003FF82108210821081FF40164
:102C60004002200C10700EE69600000100010000EA
:102C7000803F7C081008100410042002200240014C
:102C800080018002601C18E006E7BB000000001015
:102C90002011FE2202220249FC5800300013FE25BA
:102CA00028792401240D24722202A2E5900000005C
:102CB00000018002400430180860061FF800001F61
:102CC000F8200420042004200420041FF8E4BA00A3
:102CD00000010001007FFE00003FF820083FF83FA0
:102CE000F8400647C24824082008221022603EE52A
:102CF000BA0000000000803FFE44105FFC44104416
:102D00001043F040005FF84408423041C04360BCCB
:102D10001EE6B50000000067C2145205520552C5F8
:102D20005225520552055215521752228222424410
:102D300042483EE8AF000000002014101417FE00C7
:102D4000120010601013F010901090109014921454
:102D5000EA1F0A0006E7A80000000019FE7202122E
:102D60000212027DFC18001BFE3420502053FE107E
:102D7000201020102013FEE5BA0000000000803F64
:102D8000FE400047FC4208413040C05FFE404240E8
:102D9000424044404840404440E8B0000000002326
:102DA000FE122202FA0222E22212FE1272128A128B
:102DB0008A128A16BA1A421202040EE58500000130
:102DC00000010411080908091009207FFE044004CD
:102DD0004004400440084208421042607CE78900F9
:102DE00000000048FE4900490049007EFE41824142
:102DF000447944452845284510452846440382E641
:102E00009D00001000100013FC7D0411041904182B
:102E100084348850485050102010501088130414E7
:102E200002E689000000003F7C204020403E402216
:102E30007E2244224422443E8420842084408441D3
:102E4000044204E5B100003FF8200820083FF824C0
:102E50001022202FF8222022203FFC222042204452
:102E60002084200820E5B904407FFC04401FF010B6
:102E7000101FF010101FF00400FFFE11103FF8D1DA
:102E800016115011200100E6972080108010FE01DD
:102E900000FE0021FC20243C2424A024A024BC24E7
:102EA000A024A04560553E8A00E8BD2020202020B7
:102EB00020FDFC4020504093FEFC40108011FC1C83
:102EC00004F0885050102010101010E5BC00007F56
:102ED000FC08200820082008200820FFFE08200801
:102EE00020082008201020102020204020E6BA00D2
:102EF0000027FE1420144085FC450445FC150415EC
:102F0000FC2524E42024A829242A2230A00040E61D
:102F1000B60080204017FE11208120423C4244161A
:102F20006412942348E2482230222022502288034F
:102F300006E6990FE0082008200FE0082008200F7F
:102F4000E000007EFC428442847EFC428442847E17
:102F5000FC4284E7BD00007FFC4004400442145260
:102F6000944A54442444244A544A54529461044098
:102F70000440144008E7AB1020082008207E200001
:102F80003E04204420442025FC290429040F04F198
:102F900004410401FC0104E68C10401020102013B1
:102FA000FEFA02144410401BFE3088D0881108102D
:102FB000D01020105050882304E994201020103B9A
:102FC0007C211441FE7A14A27C2710F97C2510255F
:102FD000FE22102A10350028FE0000E6A010401046
:102FE00020102011FEFC00108831043A0254885051
:102FF00088905010501020105010881306E587015B
:10300000404120212023FE022016201BFC122022FA
:103010002023FCE2202220222023FE22000200E8BE
:10302000A720202020782049FC91247D2455245578
:10303000247DFC552454207C28542457FE45028CC2
:1030400000E6911110111017FC1110FC0013F8127A
:103050000817F81A0833F8D04017FC10A0111052C6
:10306000082406E6B7000000000000100000080079
:10307000080C7FFC04401001C8A002186042301800
:1030800032231812C30014030004030C047FF00859
:103090000F80080B407813601833201863181883CA
:1030A0001C190308180300000300000000E59C0041
:1030B000000000000004100C04180C04108C041014
:1030C0008C04108C04108C04D08C3F108C04108C59
:1030D00004108C04108C04108C04108C04108C05CB
:1030E000F08C0E208C78208C20408C00808C01008D
:1030F0000C02000C000000E5B80000000000000019
:10310000300000180000180800001C1FFFE0001825
:103110000000182007FFF0041820041820041820CD
:10312000041820041820041820041820041820046F
:1031300018200418E00418400018000018000000CF
:1031400000E4B800000000000000000000000000E3
:1031500018000018000018000018003FFFFE30188B
:10316000063018063018063018063018063FFFFEE5
:1031700030180600180000180000180000180000A1
:103180001800000000000000000000E696000000AB
:10319000000000000000003800001C00000600FFD6
:1031A000FFFF06003006003003006003006001806E
:1031B000C000C18000E300003600001C0000770062
:1031C00003C1E01E003C600007000000000000009A
:1031D0000000000000E6B500000000000000000054
:1031E00000000040000321FF333983331183330192
:1031F0009B33C19B33719B33199B33019B33019BE1
:1032000033119B3319B333303033306C0330C60382
:103210006383032E01BE000000000000000000E8F0
:10322000AF0000000000000000000000004000D8D7
:103230003000CE1800C21C00C001FFFF0000C0F823
:1032400000C01800C019FFC01818401818601918DD
:10325000601B18611E18311C1FB139F01910000FC6
:10326000000000000000000000E5AD0000000000CC
:10327000060000000300000000C0000001C0C00004
:103280000107C00001FF00021FFE0007F01C00073D
:10329000C070000F00E0000E03F0001C0FF0003CB7
:1032A0000F70003C00E0001800C0000000C00000EB
:1032B00000C0000000600000002000000037000097
:1032C00001FF00007FF80007F830001F8030000089
:1032D00080300000C03000006060000018E0000096
:1032E0000FC0000006000000000000E4BD00000068
:1032F0000000000000000000C0000000E00020010D
:10330000B800703FF80061FFC000C3030001C606AB
:1033100000038C060003080C0006080C000E1818A9
:103320003F1E101BF31F903F0700803C1C01907054
:103330007C019060FE01A0C3F801A00FD803A00893
:1033400018036000180340001803C0001803800031
:103350001803000018000000180000001000000012
:1033600030000000300000000000000000E6B50062
:10337000000000000000000000000000000000024B
:103380000C1008071FF80403BFF00201BC30030350
:10339000EC3003015C600300D8600300D860038058
:1033A00098620361B8430771B14306313243063373
:1033B00076C3063A64C7063EECC0063E78C0063CBB
:1033C0003040067C70000678E060067BFFF006F770
:1033D000C00006E4000006400000060000000600F1
:1033E00000007C00008FF000007C0000000000E87E
:1033F000AF00000000000000000000000000003FDF
:103400000000007F8000000180000000C00000007C
:10341000C0000000CE038000CFFFC000DD41800F60
:10342000FE0007FFFC000C00F000180FC03E19FF63
:1034300040F311BC6083307FE003B1FE2003338092
:103440002003700030036000100360001807C00004
:103450000C07C00004078000020100000300000008
:10346000010000000000000000000000000000005B
:1034700000000000843400080000002068070000FD
:043480002801000817
:04000005080000ED02
:00000001FF
