:020000040800F2
:10000000000700200D02000861150008F10C00082F
:100010005D15000805030008091E00080000000027
:10002000000000000000000000000000911900081E
:10003000090300080000000071150008591D0008A0
:1000400027020008270200082702000827020008EC
:1000500027020008270200082702000827020008DC
:1000600027020008270200082702000827020008CC
:1000700027020008270200082702000827020008BC
:1000800027020008270200082702000827020008AC
:10009000270200082702000827020008270200089C
:1000A000270200082702000827020008270200088C
:1000B000270200082702000827020008270200087C
:1000C000270200082702000827020008270200086C
:1000D000270200082702000827020008270200085C
:1000E000270200082702000827020008270200084C
:1000F000270200082702000827020008270200083C
:10010000270200082702000827020008270200082B
:10011000270200082702000827020008270200081B
:10012000270200082702000827020008270200080B
:1001300027020008270200082702000827020008FB
:1001400027020008270200082702000827020008EB
:1001500027020008270200082702000827020008DB
:1001600027020008270200082702000827020008CB
:1001700027020008270200082702000827020008BB
:10018000270200082702000800F002F800F02EF80D
:100190000AA090E8000C82448344AAF10107DA45E2
:1001A00001D100F023F8AFF2090EBAE80F0013F006
:1001B000010F18BFFB1A43F0010318471843000052
:1001C000284300000023002400250026103A28BF01
:1001D00078C1FBD8520728BF30C148BF0B607047B9
:1001E0001FB501F0AAFF1FBD10B510BD00F050F8FB
:1001F0001146FFF7F5FF01F009FE00F06EF803B4B9
:10020000FFF7F2FF03BC00F075F8000009488047D3
:1002100009480047FEE7FEE7FEE7FEE7FEE7FEE7E8
:10022000FEE7FEE7FEE7FEE704480549054A064B00
:1002300070470000951D000889010008000100209A
:1002400000070020000300200003002010B5431C1D
:1002500002E010F8011B71B18107FAD14FF00132B1
:1002600002C88C1A8C4314EAC211F9D0C01A0A06CB
:1002700003D0C01E10BDC01A10BD0A0401D0801EDC
:1002800010BD0902FCD0401E10BD7047704770477A
:10029000754600F02BF8AE4605006946534620F03F
:1002A0000700854618B020B5FFF7BEFFBDE8204027
:1002B0004FF000064FF000074FF000084FF0000B22
:1002C000AC46ACE8C009ACE8C009ACE8C009ACE891
:1002D000C00921F007018D46704710B50446AFF301
:1002E00000802046BDE81040FFF789BF00487047F6
:1002F0000000002001491820ABBEFEE726000200E6
:1003000070470000FFE7FEE77047000080B582B04D
:100310008DF807006FF0040001F004FD9DF8070060
:10032000C10840F26400C2F20000017000784FF48E
:100330007A71484340F26201C2F20001088002B0C3
:1003400080BD000080B582B0ADF80600A820FFF7A0
:10035000DDFFBDF806104DF24960CFF2B920A1FBD8
:100360000021490A8DF80510BDF80620A2FB0010F7
:10037000400A4FF4077100FB1120ADF80200FFE7BF
:100380009DF8050050B1FFE74FF4077000F012F838
:100390009DF8050001388DF80500F1E7BDF8020071
:1003A00028B1FFE7BDF8020000F004F8FFE702B053
:1003B00080BD000083B0ADF80A00BDF80A0040F22D
:1003C0006201C2F20001098848434EF21401CEF2E4
:1003D000000108604EF21801CEF200010020086012
:1003E0004EF21001CEF20001086840F001000860F2
:1003F000FFE74EF21000CEF2000000680190FFE728
:1004000000209DF80410C907009031B1FFE79DF866
:100410000610012088430090FFE70098C0070028DD
:10042000E7D1FFE74EF21001CEF20001086820F09C
:10043000010008604EF21801CEF2000100200860B1
:1004400003B0704710B58AB009904FF6FF70069060
:1004500000F050FC40F26600C2F2000005900288F5
:1004600069461F2004900860002107911423089317
:10047000084600F0EFFCDDF810C0059A0798538895
:10048000A3F114011288EE46CEF800C089B200F044
:10049000E1FC049B069A079840F26001C2F2000159
:1004A0000A800999EC460124CCF808404FF0100E60
:1004B000CDF80CE0CCF804E0CCF80010022100F0FC
:1004C000D7FBDDF80CC0049B0599069A079849886C
:1004D0001239EE46CEF80840CEF804C043F6890C37
:1004E000C0F6000CCEF800C089B200F0C1FB059B3D
:1004F000DDF818C0079808991A885B88143BEE4607
:10050000CEF800C09BB200F0A5FC0AB010BD000000
:1005100085B0049003910020029001900090029019
:10052000FFE702980F286CD8FFE702990120884066
:100530000190039800680199084000900098019983
:10054000884259D1FFE702984100032000FA01F2E6
:10055000049908689043086003980079029949005B
:1005600000FA01F2049908681043086003980079C2
:10057000012805D0FFE703980079022827D1FFE77B
:1005800002984100032000FA01F204998868904320
:100590008860039840790299490000FA01F20499B1
:1005A000886810438860BDF80810012000FA01F245
:1005B000049948689043486003988079BDF8081012
:1005C000884082B20499486810434860FFE7BDF84C
:1005D00008004100032000FA01F20499C868904322
:1005E000C8600398C0790299490000FA01F20499A1
:1005F000C8681043C860FFE7FFE702980130029027
:100600008FE705B07047000084B00390ADF80A1082
:100610008DF809200020019000909DF80900BDF898
:100620000A1001F00701890088400190BDF80A30E6
:1006300003F0070081000F2000FA01F203986FF029
:10064000030101EA53010144086A904308620398D8
:10065000BDF80A1047F6FC7202EA51010844006A2C
:1006600001990843009000980399BDF80A3002EA06
:1006700053021144086204B07047000080B586B090
:1006800084460998DDF820E0ADF816C0ADF81410E6
:10069000ADF81220ADF810308DF80F00BDF816003F
:1006A000ADF806003E20ADF808000020ADF80A00C5
:1006B000FFE7BDF80A00BDF80810884280F2B58057
:1006C000FFE7BDF80A0000EB001143F68A00C0F610
:1006D000000010F8110008990978884240F09E80C7
:1006E000FFE7BDF80A0000EB001143F68A00C0F6F0
:1006F000000000EB4100407808994978884240F0BA
:100700008D80FFE7BDF81600BDF8141000F10F0250
:1007100001F10F0392B29BB200F078FD00208DF83A
:100720000E00FFE79DF80E001F2876DCFFE7002093
:100730008DF80D00FFE79DF80D00072866DCFFE748
:100740009DF80F0000BBFFE7BDF80A0000EB0011A9
:1007500043F68A00C0F6000000EB41009DF80E1041
:10076000084480789DF80D208021D140084205D0B2
:10077000FFE7BDF8120000F0D9FE04E0BDF810005C
:1007800000F0D4FEFFE73AE0BDF8120040F260014D
:10079000C2F200010880BDF80A0000EB001143F628
:1007A0008A00C0F6000000EB41009DF80E100844DE
:1007B00080789DF80D1088400006002807D5FFE7D7
:1007C000BDF81600BDF8141000F02EFBFFE7BDF8D1
:1007D00016000130ADF81600BDF81600BDF8061081
:1007E000401A10280AD1FFE7BDF80600ADF8160040
:1007F000BDF814000130ADF8140007E0FFE7FFE793
:100800009DF80D0001308DF80D0094E7FFE79DF88D
:100810000E0001308DF80E0084E7FFE7FFE7BDF81A
:100820000A000130ADF80A0043E740F26600C2F268
:10083000000001880139408801388AB283B2002162
:10084000084600F0E3FC06B080BD000080B586B02D
:1008500084460998DDF820E0ADF816C0ADF8141014
:10086000ADF81220ADF810308DF80F00BDF816006D
:10087000ADF806000720ADF808000020ADF80A002A
:10088000FFE7BDF80A00BDF80810884280F2B18089
:10089000FFE7BDF80A004A21414344F2C600C0F612
:1008A0000000405C08990978884240F09B80FFE78F
:1008B000BDF80A0044F2C602C0F600024A2100FB5D
:1008C0000120407808994978884240F08B80FFE702
:1008D000BDF81600BDF8141000F1170201F117035E
:1008E00092B29BB200F092FC00208DF80E00FFE760
:1008F0009DF80E00472874DCFFE700208DF80D00FE
:10090000FFE79DF80D00072864DCFFE79DF80F0066
:10091000F8B9FFE7BDF80A0044F2C602C0F60002CB
:100920004A2100FB01209DF80E10084480789DF8B4
:100930000D208021D140084205D0FFE7BDF812000C
:1009400000F0F4FD04E0BDF8100000F0EFFDFFE75B
:1009500039E0BDF8120040F26001C2F200010880E7
:10096000BDF80A0044F2C602C0F600024A2100FBAC
:1009700001209DF80E10084480789DF80D108840E5
:100980000006002807D5FFE7BDF81600BDF81410D3
:1009900000F04AFAFFE7BDF816000130ADF8160086
:1009A000BDF81600BDF80610401A18280AD1FFE756
:1009B000BDF80600ADF81600BDF814000130ADF822
:1009C000140007E0FFE7FFE79DF80D0001308DF808
:1009D0000D0096E7FFE79DF80E0001308DF80E0040
:1009E00086E7FFE7FFE7BDF80A000130ADF80A002F
:1009F00047E740F26600C2F20000018801394088F2
:100A000001388AB283B20021084600F0FFFB06B02D
:100A100080BD000080B586B084460998DDF820E0EE
:100A2000ADF816C0ADF81410ADF81220ADF81030C6
:100A30008DF80F00BDF81600ADF806000420ADF8E3
:100A400008000020ADF80A00FFE7BDF80A00BDF875
:100A50000810884280F2B580FFE7BDF80A0000EB7D
:100A6000801144F2CC20C0F6000010F81100089963
:100A70000978884240F09E80FFE7BDF80A0000EB4D
:100A8000801144F2CC20C0F6000000EB4100407819
:100A900008994978884240F08D80FFE7BDF816003C
:100AA000BDF8141000F11F0201F11F0392B29BB2B6
:100AB00000F0ACFB00208DF80E00FFE79DF80E0063
:100AC0007F2876DCFFE700208DF80D00FFE79DF81A
:100AD0000D00072866DCFFE79DF80F0000BBFFE76D
:100AE000BDF80A0000EB801144F2CC20C0F60000F3
:100AF00000EB41009DF80E10084480789DF80D2011
:100B00008021D140084205D0FFE7BDF8120000F077
:100B10000DFD04E0BDF8100000F008FDFFE73AE02D
:100B2000BDF8120040F26001C2F200010880BDF879
:100B30000A0000EB801144F2CC20C0F6000000EB6C
:100B400041009DF80E10084480789DF80D108840F3
:100B50000006002807D5FFE7BDF81600BDF8141001
:100B600000F062F9FFE7BDF816000130ADF816009D
:100B7000BDF81600BDF80610401A20280AD1FFE77C
:100B8000BDF80600ADF81600BDF814000130ADF850
:100B9000140007E0FFE7FFE79DF80D0001308DF836
:100BA0000D0094E7FFE79DF80E0001308DF80E0070
:100BB00084E7FFE7FFE7BDF80A000130ADF80A005F
:100BC00043E740F26600C2F2000001880139408824
:100BD00001388AB283B20021084600F017FB06B044
:100BE00080BD000080B584B0ADF80E00ADF80C10EB
:100BF0000292BDF80E00BDF80C1000F1270201F1C1
:100C0000270392B29BB200F001FB00200190FFE7A6
:100C10000198B0F5C86F1ADAFFE70298019910F849
:100C200011008DF802000298019900EB4100407814
:100C30008DF803009DF803109DF8020040EA0120A2
:100C400000F074FCFFE7019801300190E0E740F20A
:100C50006600C2F2000001880139408801388AB27A
:100C600083B20021084600F0D1FA04B080BD000034
:100C7000B0B588B08C4686460E980D990C9CADF8A0
:100C80001EE0ADF81CC0ADF81A20ADF818308DF894
:100C900017108DF816000C98FFF7D8FAADF814006D
:100CA00040F26600C2F200000088BDF81410A0EB0C
:100CB000C10000EBD0704008ADF81200BDF8120082
:100CC000BDF81C10BDF81A20BDF81830DDF830C092
:100CD0009DF817409DF81650EE46CEF80850CEF815
:100CE0000440CEF800C000F0FFFE08B0B0BD000028
:100CF000FFE7FEE780B584B0ADF80E0040F2660075
:100D0000C2F2000001880139408801388AB283B2FA
:100D100000210091084600F079FA00F029FE0098C1
:100D200040F28422C4F24022012111600290FFE7C8
:100D3000029840F26601C2F20001498888421AD244
:100D4000FFE700200190FFE7019840F26601C2F240
:100D500000010988884209D2FFE7BDF80E0000F0C3
:100D6000E5FBFFE7019801300190EDE7FFE702980E
:100D700001300290DCE700F003FE04B080BD00000B
:100D800080B582B08DF8070040F26601C2F2000122
:100D90002A2048812B2088812C2008819DF807007B
:100DA0000146009103283CD80099DFE801F00210C9
:100DB0001E2C40F26601C2F20001F02008804FF4C0
:100DC000A07048803620082100F0A0FB2AE040F205
:100DD0006601C2F200014FF4A0700880F020488044
:100DE0003620682100F092FB1CE040F26601C2F25E
:100DF0000001F02008804FF4A07048803620C82100
:100E000000F084FB0EE040F26601C2F200014FF4F4
:100E1000A0700880F02048803620A82100F076FBE2
:100E200000E0FFE702B080BD80B582B0ADF80600FB
:100E3000ADF80410BDF80600BDF8041000F0D6F9B6
:100E400040F26000C2F20000008800F06FFB02B0C8
:100E500080BD000080B586B084460898ADF816C005
:100E6000ADF81410ADF81220ADF81030ADF80E004A
:100E7000BDF81200BDF81610401A0130ADF8080098
:100E8000BDF81000BDF81410401A0130ADF806008E
:100E9000BDF81600BDF81410BDF81220BDF81030D2
:100EA00000F0B4F90020ADF80C00FFE7BDF80C002D
:100EB000BDF8061088421DDAFFE70020ADF80A00F1
:100EC000FFE7BDF80A00BDF8081088420BDAFFE71B
:100ED000BDF80E0000F02AFBFFE7BDF80A00013064
:100EE000ADF80A00EDE7FFE7BDF80C000130ADF802
:100EF0000C00DBE740F26600C2F200000188013915
:100F0000408801388AB283B20021084600F07EF999
:100F100006B080BD80B584B001210191084600F083
:100F200059FB01980721029103218DF80D10002132
:100F30008DF80E108DF80C008DF80F000020C4F213
:100F4000020002A9FFF7E4FA04B080BD80B590B0BA
:100F500000F090FCFFF7DEFF00F034F9CF2000F046
:100F6000B7FA00200E9000F09FFAD92000F09CFA0A
:100F7000302000F099FAED2000F0AAFA642000F089
:100F800093FA032000F090FA1220009000F08CFAFF
:100F9000812000F089FAE82000F09AFA852000F01C
:100FA00083FA102000F080FA7A2000F07DFACB203E
:100FB00000F08EFA392000F077FA2C2000F074FA55
:100FC0000E9800F071FA342000F06EFA02200690BC
:100FD00000F06AFAF72000F07BFA202000F064FAB3
:100FE000EA2000F075FA0E9800F05EFA0E9800F014
:100FF0005BFAC02000F06CFA1B2000F055FAC1200B
:1010000000F066FA009800F04FFAC52000F060FA90
:101010000820019000F048FA2620029000F044FADF
:10102000C72000F055FAB72000F03EFA36200890AD
:1010300000F04EFA019800F037FA3A2000F048FA32
:10104000552000F031FAB12000F042FA0E9800F07D
:101050002BFA1A20039000F027FAB62000F038FA95
:101060000A20049000F020FAA22000F01DFAF220DD
:1010700000F02EFA0E9800F017FA029800F028FA05
:1010800001200F9000F010FAE02000F021FA0F206C
:101090000B9000F009FA1D20059000F005FA039866
:1010A00000F002FA049800F0FFF90D2000F0FCF9BE
:1010B0000720099000F0F8F9492000F0F5F96620C2
:1010C00000F0F2F93B2000F0EFF9099800F0ECF99C
:1010D00011200C9000F0E8F90F9800F0E5F90920D4
:1010E00000F0E2F905200D9000F0DEF904200790F1
:1010F00000F0DAF9E12000F0EBF90E9800F0D4F9F5
:10110000182000F0D1F9059800F0CEF9069800F00B
:10111000CBF90B9800F0C8F9079800F0C5F90898CA
:1011200000F0C2F913200A9000F0BEF94C2000F044
:10113000BBF9099800F0B8F90A9800F0B5F90B98D6
:1011400000F0B2F92E2000F0AFF92F2000F0ACF93A
:101150000D9800F0A9F92B2000F0BAF90E9800F0D4
:10116000A3F90E9800F0A0F90F9800F09DF93F2028
:1011700000F09AF92A2000F0ABF90E9800F094F9EB
:101180000E9800F091F90E9800F08EF9EF2000F023
:101190008BF90C9800F09CF90D98FFF7D3F82920F3
:1011A00000F096F90E98FFF7EBFD0F9840F28821BA
:1011B000C4F2402108604FF6FF70FFF79BFD10B0AE
:1011C00080BD000080B582B040F28021C4F2402191
:1011D0000191002008600A20FFF7B4F8019901206E
:1011E00008600520FFF7AEF802B080BD80B582B080
:1011F000ADF80600ADF80410BDF80620BDF80430C7
:101200001046194600F002F802B080BD80B584B0E7
:10121000ADF80E00ADF80C10ADF80A20ADF80830AE
:1012200040F26600C2F200000190807A00F050F9AE
:101230009DF80F0000F038F99DF80E0000F034F929
:101240009DF80B0000F030F99DF80A0000F02CF931
:101250000198007B00F03CF99DF80D0000F024F9A6
:101260009DF80C0000F020F99DF8090000F01CF931
:101270009DF8080000F018F900F03EF904B080BDB8
:10128000B0B584B094468E4604460A980999089AE7
:10129000ADF80E40ADF80CE0ADF80AC0ADF808307E
:1012A0008DF807208DF806108DF8050040F26000DB
:1012B000C2F200000088ADF800009DF80700203859
:1012C0008DF80700BDF80E00BDF80C109DF8063033
:1012D00000EB5302013A0B44013B92B29BB2FFF781
:1012E00095FF9DF8050000285DD1FFE700208DF8EF
:1012F0000300FFE79DF803009DF80610884251DACD
:10130000FFE79DF806000C2810D1FFE79DF80700C5
:1013100000EB400142F26410C0F6000000EB8100D7
:101320009DF80310405C8DF804000DE09DF8071057
:1013300042F2D850C0F6000000EB01109DF80310F7
:10134000405C8DF80400FFE700208DF80200FFE705
:101350009DF802009DF80610B0EB510F1BDAFFE775
:101360009DF80400C00728B1FFE7BDF80A0000F0AF
:10137000DDF804E0BDF8080000F0D8F8FFE79DF8BC
:10138000040040088DF80400FFE79DF802000130DA
:101390008DF80200DCE7FFE79DF8030001308DF8CF
:1013A0000300A7E768E000208DF80300FFE79DF841
:1013B00003009DF8061088425DDAFFE79DF80600FD
:1013C0000C2810D1FFE79DF8070000EB400142F226
:1013D0006410C0F6000000EB81009DF80310405C33
:1013E0008DF804000DE09DF8071042F2D850C0F6C9
:1013F000000000EB01109DF80310405C8DF8040024
:10140000FFE700208DF80200FFE79DF802009DF83D
:101410000610B0EB510F27DAFFE7BDF80A0040F2E3
:101420006001C2F2000108809DF80400C00778B195
:10143000FFE7BDF80E009DF802100844BDF80C103F
:101440009DF80320114480B289B2FFF7EDFCFFE75D
:101450009DF8040040088DF80400FFE79DF80200A5
:1014600001308DF80200D0E7FFE79DF8030001305E
:101470008DF803009BE7FFE7BDF8000040F2600134
:10148000C2F20001088040F26600C2F2000001884A
:101490000139408801388AB283B200210846FFF73B
:1014A000B5FE04B0B0BD000080B582B08DF8070075
:1014B00000F05EFA40F28421C4F24021012008606D
:1014C0009DF8070000F048F900F05AFA02B080BD1C
:1014D00080B582B08DF8070000F04AFA40F284210E
:1014E000C4F24021002008609DF8070000F034F9A4
:1014F00000F046FA02B080BD80B540F26600C2F24C
:101500000000007AFFF7E4FF80BD000080B582B0E4
:101510008DF80700ADF804109DF80700FFF7D8FF1D
:101520009DF80400FFF7C0FF02B080BD80B582B017
:10153000ADF8060000F01CFA40F28421C4F240210C
:10154000012008609DF8070000F006F99DF80600EC
:1015500000F002F900F014FA02B080BDFFE7FEE7E8
:1015600070470000000000000000000000000000C4
:10157000EFF30980BFF36F8F154B1A681EF0100F41
:1015800008BF20ED108A20E9F04F10602DE9090016
:101590004FF0BF0080F31188BFF34F8FBFF36F8F01
:1015A00000F05CFC4FF0000080F31188BDE80900FA
:1015B00019680868B0E8F04F1EF0100F08BFB0ECD3
:1015C000108A80F30988BFF36F8F704700BF00BF98
:1015D0007400002082B001908DF803109DF8030084
:1015E00048B1FFE7019A43F63001C4F202010868EE
:1015F0001043086008E0019A43F63001C4F202018A
:10160000086890430860FFE702B0704782B001901D
:101610008DF803109DF8030048B1FFE7019A43F6E7
:101620004401C4F2020108681043086008E0019A0E
:1016300043F64401C4F20201086890430860FFE7E2
:1016400002B0704782B001908DF803109DF803003E
:1016500048B1FFE7019A43F62401C4F20201086889
:101660001043086008E0019A43F62401C4F2020125
:10167000086890430860FFE702B0704780B58AB001
:1016800000208DF8270042F2541CC0F6000CDCF854
:101690000010DCF80420DCF80830DCF80CC0CDF8D1
:1016A00020C00793069205918DF82700FFE79DF86B
:1016B0002700032834DCFFE79DF82700FFF760FBD5
:1016C00043F67900C0F60000FEF7BCFE9DF8271037
:1016D00005A850F82100694601228A6010224A605C
:1016E000086014201E2103911F224FF6E07300F0C2
:1016F000FBF9039842F6C832C0F600023221FFF728
:1017000071FA4FF47A700490FEF71CFE0498FEF70D
:1017100019FEFFE79DF8270001308DF82700C6E786
:101720000020FFF72DFB0AB080BD000082B00190C1
:101730008DF803109DF8030030B1FFE70199088888
:1017400040F04000088005E00199088820F0400042
:101750000880FFE702B0704780B582B08DF80700BF
:10176000FFE743F20000C4F20100022100F022F87A
:10177000012801D0FFE7F4E79DF8071043F20000CD
:10178000C4F2010000F038F8FFE743F20000C4F2B1
:101790000100012100F00EF8012801D0FFE7F4E775
:1017A00043F20000C4F2010000F020F8C0B202B021
:1017B00080BD000082B00190ADF8021000208DF8CD
:1017C000010001980089BDF802100840000420B112
:1017D000FFE701208DF8010003E000208DF80100F3
:1017E000FFE79DF8010002B07047000081B0009053
:1017F0000098808901B0704782B00190ADF8021066
:10180000BDF802000199888102B0704783B0029050
:1018100001910020ADF8020002980088ADF80200A6
:10182000BDF8020000F44150ADF8020001990888AB
:101830004A8810438A881043CA8810430A89104393
:101840004A8910438A891043C9890143BDF80200BF
:101850000843ADF80200BDF8020002990880029921
:10186000888B20F4006088830198008A029908829E
:1018700003B0704780B590B0012108910846FFF78A
:10188000A9FE0898E0210E9102218DF83C10032159
:1018900000918DF83D10002106918DF83E108DF8D5
:1018A0003F000020C4F2020002900EA90191FEF751
:1018B0002FFEDDF800C001990298069B089A4FF0B0
:1018C000100ECDF838E08DF83C208DF83DC08DF835
:1018D0003E308DF83F20FEF71BFE02980522039252
:1018E0001146FEF791FE0298039A0621FEF78CFE40
:1018F0000298039A07210591FEF786FE08994FF496
:1019000080500490FFF79EFE04980699FFF79AFE18
:1019100004980899FFF77AFE059906984FF48272A9
:10192000ADF826204FF40072ADF82E20ADF824005B
:10193000ADF83200ADF82C00ADF82A00ADF830005B
:10194000ADF83410ADF8280043F20000C4F20100F5
:10195000079009A9FFF75AFF07980899FFF7E6FED5
:10196000089840F29021C4F24021086010B080BD78
:1019700040F29021C4F2402100200860704700002E
:1019800040F29021C4F2402101200860704700001D
:10199000074B19680868B0E8F04F80F30988BFF377
:1019A0006F8F4FF0000080F31188704700BF00BFB9
:1019B0007400002083B000200290019043F60001E3
:1019C000C4F20201086840F480300860FFE743F683
:1019D0000000C4F20200006800F400300190029898
:1019E00001300290FFE701990020009039B9FFE72C
:1019F0000298B0F5A04018BF01200090FFE70098C2
:101A0000C0070028E3D1FFE743F60000C4F202005C
:101A100000688003002803D5FFE70120019002E061
:101A200000200190FFE7019801285AD1FFE743F613
:101A30004001C4F20201086840F08050086047F29B
:101A40000001C4F20001086840F44040086043F619
:101A50000801C4F2020108680860086840F4004008
:101A60000860086840F4A050086043F60401C4F21E
:101A7000020145F21940C0F24070086043F60001CF
:101A8000C4F20201086840F080700860FFE743F686
:101A90000000C4F2020000688001002801D4FFE7C2
:101AA000F5E743F60041C4F2020140F20570086018
:101AB00043F60801C4F20201086820F00300086040
:101AC000086840F002000860FFE743F60800C4F22F
:101AD0000200006800F00C00082801D0FFE7F4E7DE
:101AE00000E0FFE703B07047B0B588B08C4686468B
:101AF0000E980D990C9CADF81EE0ADF81CC0ADF829
:101B00001A20ADF818308DF817108DF81600BDF8B2
:101B10001E00ADF8140000208DF81300FFE70C98AC
:101B20000078002800F0FC80FFE79DF813000028F3
:101B300040F08580FFE7BDF81E0040F26601C2F26A
:101B4000000109889DF81720A1EB520188420DDCA5
:101B5000FFE7BDF81C0040F26601C2F200014988AF
:101B60009DF81720891A884201DDFFE7D8E00C981C
:101B70000078812804DBFFE701208DF813005DE089
:101B80000C9800780D280FD1FFE79DF81710BDF8CD
:101B90001C000844ADF81C00BDF81400ADF81E0090
:101BA0000C9801300C9045E09DF8170011281EDBC1
:101BB000FFE7BDF81E00BDF81C10BDF81A20BDF8E7
:101BC0001830DDF830C09CF800C09DF81640EE4695
:101BD000CEF808401024CEF80440CEF800C0FFF73D
:101BE0004FFBBDF81E000830ADF81E0021E0BDF827
:101BF0001E00BDF81C10BDF81A20BDF81830DDF825
:101C000030C09CF800C09DF817409DF81650EE4675
:101C1000CEF80850CEF80440CEF800C0FFF730FBF5
:101C20009DF81710BDF81E0000EB5100ADF81E0026
:101C3000FFE7FFE70C9801300C90FFE76FE0BDF87D
:101C40001E0040F26601C2F2000109889DF81720CB
:101C5000891A88420DDCFFE7BDF81C0040F26601DE
:101C6000C2F2000149889DF81720891A884201DDD7
:101C7000FFE755E000208DF813009DF8170020289D
:101C800014D1FFE7BDF81E00BDF81C10BDF81A20E6
:101C9000BDF81830DDF830C09DF81640EE46CEF89D
:101CA0000440CEF800C0FEF7B5FE2DE09DF8170009
:101CB000182814D1FFE7BDF81E00BDF81C10BDF8B0
:101CC0001A20BDF81830DDF830C09DF81640EE46F9
:101CD000CEF80440CEF800C0FEF7B8FD13E0BDF822
:101CE0001E00BDF81C10BDF81A20BDF81830DDF834
:101CF00030C09DF81640EE46CEF80440CEF800C045
:101D0000FEF7BCFCFFE7FFE70C9802300C909DF853
:101D10001710BDF81E000844ADF81E00FFE7FEE6F0
:101D200008B0B0BD81B000900098042809D1FFE749
:101D30004EF21001CEF20001086840F00400086085
:101D400008E04EF21001CEF20001086820F0040015
:101D50000860FFE701B0704780B582B04FF0BF0068
:101D600080F31188BFF36F8FBFF34F8F009000F0A7
:101D7000BFF840B1FFE74EF60451CEF200014FF03C
:101D800080500860FFE700200190019880F31188DF
:101D900002B080BD80B54EF68851CEF200010868D1
:101DA00040F47000086043F60002C4F202021068BA
:101DB00040F00100106043F60801C4F20201002067
:101DC000086011684FF6FF73CFF6F6631940116093
:101DD00043F60403C4F2020343F21001C2F20041CD
:101DE0001960116821F48021116043F60C01C4F2DE
:101DF00002010860FFF7DEFD4EF60851CEF2000149
:101E00004FF00060086080BDFFE7FEE780B582B05C
:101E100000200190FFF79AF8FFE7FFF72FFCFCE79F
:101E200040F27800C2F200000068006840B9FFE7A5
:101E300040F2EC01C2F200014FF6FF7008800CE0A6
:101E400040F27800C2F200000068C068008840F2EA
:101E5000EC01C2F200010880FFE7704784B040F255
:101E6000E400C2F20000006838B1FFE740F2F80178
:101E7000C2F200010120086037E040F2F801C2F22E
:101E800000010020086040F2E800C2F20000006893
:101E900003900398B0FA80F08DF80B009DF80B00CA
:101EA000C0F11F000190019800EB800140F280001A
:101EB000C2F2000000EB8100009000994868406881
:101EC0004860009948680831884205D1FFE70099C9
:101ED000486840684860FFE700984068C06840F282
:101EE0007401C2F200010860FFE704B0704700000F
:101EF00080B588B00020059040F2E400C2F20000F6
:101F00000068002840F00E81FFE740F2F601C2F2BF
:101F1000000108880130ADF81200BDF812000880F9
:101F2000BDF81200C0B9FFE740F27802C2F2000229
:101F30001068039040F27C01C2F200010868106052
:101F40000398086040F2F001C2F200010868013015
:101F50000860FFF765FF00E0FFE7BDF8120040F200
:101F6000EC01C2F2000109888842C0F2BA80FFE7A2
:101F7000FFE740F27800C2F200000068006840B954
:101F8000FFE740F2EC01C2F200014FF6FF7008805B
:101F9000A6E040F27800C2F200000068C068C068A5
:101FA000079007988088ADF81A00BDF81200BDF8B8
:101FB0001A10884208DAFFE7BDF81A0040F2EC0177
:101FC000C2F2000108808BE0FFE7079840690290A9
:101FD00007988168C068886007998868C968486000
:101FE0000298406807990431884205D1FFE70798B5
:101FF000C06802994860FFE707990020486102998C
:102000000868013808600798806AF8B1FFE7079808
:10201000806A01900798C169006A88600799C86959
:10202000096A48600198406807991831884205D1CB
:10203000FFE70798006A01994860FFE707990020C9
:102040008862019908680138086000E0FFE7079896
:10205000C16A012000FA01F240F2E801C2F2000177
:102060000868104308600798C06A00EB800040F2DF
:102070008001C2F2000101EB8000406800900098EE
:10208000079A906000988068079AD060079804309B
:10209000009A9268506007980430009A9060079AFE
:1020A000D06A00EB800001EB800050610798C06AA5
:1020B00000EB800251F82200013041F8220007981D
:1020C000C06A40F27401C2F200010968C96A88421C
:1020D00003D9FFE70120059000E0FFE7FFE748E7AD
:1020E000FFE740F27400C2F200000068C06A00EB33
:1020F000800140F28000C2F2000050F82100022866
:1021000003D3FFE70120059000E0FFE740F2F8006D
:10211000C2F20000006818B1FFE70120059000E05E
:10212000FFE707E040F2F401C2F200010888013045
:102130000880FFE7059808B080BDF1EE100A4FF661
:10214000FF71C0F2C03120EA010040F04070E1EEC2
:10215000100A70476E3800086238000855380008C9
:1021600048380008000000000000000000000000E7
:1021700000000404040404040004000000140A0A1B
:102180000000000000000000000014143F140A3F8B
:102190000A0A000000041E1505060C14150F0400A1
:1021A000000012150D0A142C2A1200000000040A67
:1021B0000A1E151509360000000202010000000089
:1021C000000000000020100808080808081020007F
:1021D00000020408080808080804020000000004BF
:1021E000150E0E150400000000000404041F040472
:1021F00004000000000000000000000000020201D6
:1022000000000000001F00000000000000000000AF
:10221000000000000002000000100808080404028A
:102220000202010000000E1111111111110E000027
:102230000000040604040404040E000000000E1153
:1022400011080402011F000000000E11100C1010F4
:10225000110E00000000080C0A0A091E08180000F0
:1022600000001F01010F1010110E000000000E09E8
:10227000010F1111110E000000001F0908040404D1
:102280000404000000000E11110E1111110E0000C7
:1022900000000E1111111E10120E000000000000AF
:1022A0000400000000040000000000000004000022
:1022B000000404000020100804020408102000009C
:1022C000000000001F00001F0000000000020408C2
:1022D000102010080402000000000E111108040470
:1022E0000004000000000E111915151D011E00004C
:1022F000000004040C0A0A1E1233000000000F1232
:10230000120E1212120F000000001E110101010135
:10231000110E000000000F1212121212120F000014
:1023200000001F120A0E0A02121F000000001F12F6
:102330000A0E0A020207000000001C1201013911F6
:10234000120C000000003312121E12121233000091
:1023500000001F0404040404041F000000003E08E1
:102360000808080808090700000037120A060A0AC8
:10237000123700000000070202020202223F0000A2
:1023800000001B1B1B1B15151515000000003B1240
:1023900016161A1A1217000000000E111111111151
:1023A000110E000000000F12120E020202070000C0
:1023B00000000E1111111117190E180000000F1254
:1023C000120E0A121237000000001E11010608103A
:1023D000110F000000001F1504040404040E000087
:1023E0000000331212121212120C000000003312FD
:1023F000120A0A0C0404000000001515150E0A0A42
:102400000A0A000000001B0A0A04040A0A1B000052
:1024100000001B0A0A040404040E000000001F0947
:1024200008040402121F0000001C04040404040435
:1024300004041C0000020202040408080810000042
:10244000000E08080808080808080E0000040A0022
:10245000000000000000000000000000000000007C
:102460000000003F00040000000000000000000029
:1024700000000000000C121C123C000000000302CF
:10248000020E1212120E000000000000001C1202C8
:10249000021C000000001810101C1212123C000058
:1024A00000000000000C121E021C00000000380496
:1024B000041E0404041E000000000000003C120C76
:1024C000021E221C00000302020E1212123700002C
:1024D0000000040000060404040E000000000800D0
:1024E000000C08080808080700000302023A0A0E58
:1024F000123700000000070404040404041F000055
:1025000000000000000F1515151500000000000068
:10251000000F12121237000000000000000C12120F
:10252000120C000000000000000F1212120E020731
:1025300000000000001C1212121C103800000000E5
:10254000001B06020207000000000000001E020C33
:10255000101E000000000004040E04040418000013
:1025600000000000001B1212123C000000000000DE
:102570000037120A0C040000000000000015150EC0
:102580000A0A000000000000001B0A040A1B0000E9
:10259000000000000037120A0C04040300000000D1
:1025A000001E0804041E000000180808080408089B
:1025B0000808180008080808080808080808080893
:1025C000000604040408040404040600022518009C
:1025D00000000000000000000000000000000000FB
:1025E00000000000000000000000000808080808C3
:1025F000080800001818000000486C2412000000B1
:1026000000000000000000000000002424247F12CD
:1026100012127F12121200000000081C2A2A0A0C53
:102620001828282A2A1C080800000022251515153C
:102630002A585454542200000000000C1212120AAE
:1026400076252911916E00000006060403000000A3
:1026500000000000000000000040201010080808E2
:10266000080808101020400000020408081010108C
:1026700010101008080402000000000008086B1C7D
:102680001C6B080800000000000000000808080893
:102690007F0808080800000000000000000000009B
:1026A0000000000006060403000000000000000017
:1026B000FE0000000000000000000000000000001C
:1026C00000000000060600000000804040202010AE
:1026D00010080804040202000000001824424242CC
:1026E0004242424224180000000000080E08080878
:1026F00008080808083E00000000003C4242422052
:1027000020100804427E00000000003C42422018D5
:1027100020404042221C00000000002030282424D9
:1027200022227E20207800000000007E0202021A91
:1027300026404042221C0000000000382402021AF9
:1027400026424242241800000000007E222210107F
:1027500008080808080800000000003C4242422423
:1027600018244242423C0000000000182442424229
:1027700064584040241C00000000000000001818AD
:102780000000000018180000000000000000000811
:1027900000000000000808040000004020100804A9
:1027A00002040810204000000000000000007F002C
:1027B00000007F000000000000000002040810205C
:1027C00040201008040200000000003C4242464045
:1027D00020101000181800000000001C225A555547
:1027E00055552D42221C0000000000080818141442
:1027F000243C224242E700000000001F2222221E49
:1028000022424242221F00000000007C424201019D
:1028100001010142221C00000000001F224242422E
:1028200042424242221F00000000003F4212121E9C
:1028300012120242423F00000000003F4212121EEC
:1028400012120202020700000000003C22220101D5
:1028500001712122221C0000000000E74242424296
:102860007E42424242E700000000003E080808089D
:1028700008080808083E00000000007C1010101036
:10288000101010101010110F0000007722120A0E05
:102890000A12122222770000000000070202020240
:1028A00002020202427F0000000000773636363610
:1028B0002A2A2A2A2A6B0000000000E346464A4AD8
:1028C00052525262624700000000001C2241414106
:1028D00041414141221C00000000003F424242426F
:1028E0003E020202020700000000001C224141419A
:1028F00041414D53321C60000000003F4242423EC5
:102900001212222242C700000000007C4242020450
:1029100018204042423E00000000007F490808089D
:1029200008080808081C0000000000E74242424274
:1029300042424242423C0000000000E74242222460
:1029400024141418080800000000006B4949494984
:102950005555362222220000000000E742242418A8
:102960001818242442E700000000007722221414E3
:1029700008080808081C00000000007E2120101034
:1029800008040442423F00000078080808080808CC
:102990000808080808087800000002020404080873
:1029A0000810102020204040001E101010101010A1
:1029B0001010101010101E0000384400000000001D
:1029C0000000000000000000000000000000000007
:1029D00000000000000000FF0006080000000000EA
:1029E0000000000000000000000000000000003CAB
:1029F0004278444242FC0000000000030202021A36
:102A000026424242261A0000000000000000003862
:102A10004402020244380000000000604040407858
:102A20004442424264D80000000000000000003C24
:102A3000427E0202423C0000000000F08808087E4E
:102A400008080808083E0000000000000000007CA4
:102A500022221C023C42423C000000030202023AD5
:102A60004642424242E700000000000C0C00000E0B
:102A700008080808083E0000000000303000003858
:102A8000202020202020221E0000000302020272CB
:102A9000120A1612227700000000000E080808082B
:102AA00008080808083E0000000000000000007F41
:102AB0009292929292B70000000000000000003B4A
:102AC0004642424242E70000000000000000003C95
:102AD00042424242423C0000000000000000001B55
:102AE00026424242221E0207000000000000007839
:102AF00044424242447840E0000000000000007779
:102B00004C040404041F0000000000000000007CCE
:102B100042023C40423E0000000000000008083E27
:102B200008080808083000000000000000000063EA
:102B30004242424262DC000000000000000000E768
:102B4000422424140808000000000000000000EBEC
:102B5000494955552222000000000000000000767F
:102B600024181818246E000000000000000000E780
:102B70004224241418080807000000000000007E0A
:102B800022100808447E000000C0202020202010D1
:102B9000202020202020C000101010101010101035
:102BA0001010101010101010000608080808081067
:102BB00008080808080806000C32C20000000000DF
:102BC0000000000000000000DBDE5DEF5DEF7DEF48
:102BD0005DEF5DEF5DEF5DEF5DEF5DEF5DEF5DEF95
:102BE0005DEF5DEF5DEFBEF7FFFFDEFF38C6928C55
:102BF0008E6B6E6B107C96AD3CE7FFFFFFFF7DEFA9
:102C00005DEF5DEF5DEF5DEF5DEF5DEF5DEF5DEF64
:102C10005DEF5DEF5DEF5DEF5DEFFFFFFFFFFFFF3E
:102C2000FFFFFFFFFFFFFFFFFFFFFFFFFFFFFFFFB4
:102C3000FFFFFFFFFFFF5DEF159D4F636C420A3200
:102C40008829461925194521E8318E6B18BEFFFFEA
:102C5000FFFFFFFFFFFFFFFFFFFFFFFFFFFFFFFF84
:102C6000FFFFFFFFFFFFFFFF5DEFFFFFFFFFFFFF26
:102C7000FFFFFFFFFFFFFFFFFFFFFFFFFFFFFFFF64
:102C8000FFFFDFFFF59C0F53104B51530F4B6C3A76
:102C9000E93167212519E410A308620083088A4AF4
:102CA00059C6FFFFFFFFFFFFFFFFFFFFFFFFFFFF13
:102CB000FFFFFFFFFFFFFFFF5DEFFFFFFFFFFFFFD6
:102CC000FFFFFFFFFFFFFFFFFFFFFFFFFFFFFFFF14
:102CD0001CE74F5BB363B87CF56311434D32EA29BF
:102CE000882126190519051904110411E41083001F
:102CF000A308728CFFFFFFFFFFFFFFFFFFFFFFFF37
:102D0000FFFFFFFFFFFFFFFF5DEFFFFFFFFFFFFF85
:102D1000FFFFFFFFFFFFFFFFFFFFFFFFFFFFDBDE08
:102D20004B3AF042356C544BB1322E2AEB21A9219B
:102D3000671905190411041104110411041105196E
:102D4000E4104200AF73FFFFFFFFFFFFFFFFFFFF35
:102D5000FFFFFFFFFFFFFFFF5DEFFFFFFFFFFFFF35
:102D6000FFFFFFFFFFFFFFFFFFFFFFFF5DEF0932E8
:102D70004C32104B8F324F2A2E2ACC1989198921B7
:102D80004719051904110411C410C41004110411C9
:102D90000411E41042003184FFFFFFFFFFFFFFFF3B
:102DA000FFFFFFFFFFFFFFFF5DEFFFFFFFFFFFFFE5
:102DB000FFFFFFFFFFFFFFFFFFFFFFFFEC52471981
:102DC0004C320B2AEC21EC210C22915BEE4A0611CD
:102DD00026190419E410E410A7296621A30805198F
:102DE00004110411E4108200F7BDFFFFFFFFFFFF95
:102DF000FFFFFFFFFFFFFFFF5DEFFFFFFFFFFFFF95
:102E0000FFFFFFFFFFFFFFFFFFFF35A583088821BE
:102E100088218921AA218A216B42718CFFFF728C43
:102E200083080411C4082942FBDE5DEFEC5A8308D5
:102E30000411041104118308E831DFFFFFFFFFFFD5
:102E4000FFFFFFFFFFFFFFFF5DEFFFFFFFFFFFFF44
:102E5000FFFFFFFFFFFFFFFFBEF7C731C4102519BB
:102E6000261947194719A8298A52284A55ADFFFF44
:102E7000E831A30805194D6B4D6BFFFF7DEF452130
:102E8000C410041104110411620076ADFFFFFFFFAE
:102E9000FFFFFFFFFFFFFFFF5DEFFFFFFFFFFFFFF4
:102EA000FFFFFFFFFFFFFFFF96B56200041104194B
:102EB00005110519C4088B4AB6B55DEFF7BDFFFFD4
:102EC0008E6B62002942AA5A0842FFFFFFFFCC52D4
:102ED0008308041104110411A308AD52FFFFFFFF82
:102EE000FFFFFFFFFFFFFFFFBEF7FFFFDFFFDBDEA0
:102EF000FFFFFFFFFFFFFFFF4E636200041104119D
:102F00000411E41062008E63FFFFFFFFFFFFFFFF6D
:102F1000CF730100F39C2C6396B5FFFFFFFF2D5B81
:102F20008300041104110411E41067213DEFFFFF39
:102F3000FFFFFFFFFFFFFFFFB7B576AD7DEFCB5281
:102F4000B394FFFFFFFFDFFFE831A3080411041172
:102F500004110411A3084942FFF7FFF7FFFFFFFF29
:102F60006A4A01007284FFFFFFFFFFF7DFEF093AB3
:102F7000A3080411041104110411051118BEFFFF68
:102F8000FFFFFFFFFFFFFFFFF07B6200E831C7316B
:102F9000410035A5FFFF5DEF4621C4100411041167
:102FA00004110411E410A308769DFFF7FFFFB7ADED
:102FB000A308A308C7319EE7FFF7FFF776A5A3088C
:102FC000E4100411041104110511051135A5FFFFCA
:102FD000FFFFFFFFFFFFFFFFDBDEA7298300C41019
:102FE000C410C4101CE79EEF0511E4100411041175
:102FF000041104110419C408E510D16BD16BC50884
:103000006400A50843002B32779DB3842519C410B2
:10301000041104110411041125192609359DFFFF1F
:10302000FFFFFFFFFFFFFFFFFFFFAF736200041909
:10303000051982000D5B8E9B6210051104110411AD
:103040000419E41085000511C439815A407B229C83
:1030500043AC03A4839B82728249C218A400C500BA
:10306000E41004190411051947196711EC5ABEFF41
:10307000FFFFFFFFFFFFFFFFDFFFDBD6C410E41001
:1030800004110511A41801C08388E400051904196E
:10309000C5084421438323D542FEE4FE27FF07FFF2
:1030A000A4FE64FE03FEA3FDE2FC42EC83B32462B3
:1030B000E510C40804192619A81987210090D3BC6B
:1030C000FFFFFFFFFFFFFFFF5DEFFFFFF07B420011
:1030D00005190511832801D044F8A348E400C50868
:1030E000445A02EDE2FD02FE66FE74FFB8FF73FF74
:1030F000E7F6A6F645F6A4F5C3FC62FCC2FCC2FCEA
:10310000E3CBC449061188198701A49001F8EC9A11
:10311000FFFFFFFFFFFFFFFF5DEFFFFF9EF7E831BF
:1031200083000509824001C023F885F0A348A4006C
:10313000445A02FD23CCC2DC04FE28FE48F646F6C3
:1031400024F6E4F564FDE3FC62FCC2FC02E402DC6C
:10315000E2FCA47A48016701C47824F802F884B03C
:103160007DE7FFFFFFFFFFFF5DEFFFFFFFFFDBDE00
:103170002519A300C43802E022D844F8A6F8A478A0
:103180006300432183728339829B21F561FD22FD17
:10319000E2FCA2FC42FC42FC42FC22AB8341C39213
:1031A000045226012519A49844F823F802F8A4D063
:1031B0009EEFFFFFFFFFFFFF5DEFFFFFFFFFFFFF42
:1031C0009AD68729A50043B822F823E065F8E8F8E5
:1031D00007C983484200A30084006329A27A62B32E
:1031E000A2CB62D302BB828A8339A400E500E5004A
:1031F000E508C46064D844F824F823F802F883880A
:10320000DBC6FFFFFFFFFFFF5DEFFFFFFFFFFFFFDD
:10321000FFFF3DE7505B083123E843F844F065F8D1
:1032200009F9ABF989D10689A34842180200420086
:1032300061008200620062008300A320C450A58860
:1032400085D865F844F844F823F823F803D08210B1
:10325000C7295DEFFFFFFFFF5DEFFFFFFFFFFFFFF0
:10326000FFFFFFFFFFFF6C32A53802D823F865F897
:1032700066F8A7F84AF90CFA4DFA4CEA0BD2A9B94C
:1032800068B147A927B107B907D1E7E8C7F8A7F898
:1032900065F865F844F823F803F802D0A328050977
:1032A000C408EC5AFFFFFFFF5DEFFFFFFFFFFFFFCA
:1032B000FFFFFFFFFBDE0519C400A741E6C003F8CE
:1032C00086F8A7F887F886F8C7F829F98AF9ABF9DC
:1032D000ABF98BF96AF929F908F9C7F8A6F886F865
:1032E00065F864F823F802F006B12529E400E4103B
:1032F00025192519149DFFFF5DEFFFFFFFFFFFFF5D
:10330000FFFFFFFF96AD620082083595BACE8BA213
:1033100044D025F887F8A7F8C7F8A7F887F886F803
:1033200086F886F887F8A7F8A7F8A6F885F865F86C
:1033300064F824F064B80D93BBB6CF63830804111E
:10334000E4106621493A5DEF5DEFFFFFFFFFFFFFED
:10335000FFFFFFFFD3944200E410BBCEFFFFBEE7A8
:1033600076B5CCAA07C145E045F846F866F886F878
:1033700086F886F886F865F845F865F865E844D07B
:1033800043A8018882903CD7FFEF5595830804112C
:10339000041105194619B3945DEFFFFFFFFFFFFF0E
:1033A000FFFFFFFFB394410086215DDFFFFFFFFFBA
:1033B000FFFFDFE77AC6D3B44EB32AC268D1E6E096
:1033C000A6E8A5E8A5E8E6D888C906A922A802A823
:1033D00000A000C800D8F7E5FFE7F8ADC410E4107E
:1033E0000411E41005118B4A5DEFFFFFFFFFFFFFA3
:1033F000FFFFFFFF55A54100A7295DDFFFF7FFFF96
:10340000FFFFFFFFFFFFFFFFFFEF7DDFDBCE59CEAA
:10341000F8CDD7CDF7C579CEFBBEABA203F045F80A
:1034200042D043E800F072D4FFDF39AEE410E4107C
:103430000411E410051187295DEFFFFFFFFFFFFF77
:10344000FFFFFFFF59CE830846211CD7FFF7FFFF80
:10345000FFFFFFFFFFFFFFFFFFFFFFFFFFFFFFFF7C
:10346000FFFFFFFFFFFFFFFFFFEF8BBA04F845F8F8
:1034700062E044F000F88EDBFFDFF8A5C410E41032
:10348000E4100411E41025195DEFFFFFFFFFFFFFBB
:10349000FFFFFFFFBEF78729830839B6FFF7DFF785
:1034A000FFFFFFFFFFFFFFFFFFFFFFFFFFFFFFFF2C
:1034B000FFFFFFFFFFFFFFFFBEE74ABA03F845F833
:1034C00064F844F800F86EE3FFD7F48C8308041125
:1034D000E410E410E41005195DEFFFFFFFFFFFFFAC
:1034E000FFFFFFFFFFFFEF7300007284FFEFBEEFEF
:1034F000DFFFFFFFFFFFFFFFFFFFFFFFFFFFFFFFFC
:10350000FFFFFFFFFFFFFFFFDFE78BBA03F845F880
:1035100045F823F800F8D3D4FFD74E5B2100293AB1
:1035200055A58308C41025195DEFFFFFFFFFFFFFBE
:10353000FFFFFFFFFFFFFBDEA308E8319EDF9EE7F2
:10354000BFEFFFFFFFFFFFFFFFFFFFFFFFFFFFFFDB
:10355000FFFFFFFFFFFFFFFFFFF751BC02E003F893
:1035600003F043E0ECC27ECFFCBE46212100D394A1
:10357000FFFF5184000087295DEFFFFFFFFFFFFF82
:10358000FFFFFFFFFFFFFFFF51840000F48CFFEF00
:103590009EE7BFEFDFFFFFFFFFFFFFFFFFFFFFFF24
:1035A000FFFFFFFFFFFFFFFFFFFF3DDF55BD52BCE9
:1035B00072BCB7B55DC7FFDFF06B0000093ABFF71B
:1035C000FFFFFFFF149D55A55DEFFFFFFFFFFFFF0E
:1035D000FFFFFFFFFFFFFFFFFFFFAC4AA408BBBEDA
:1035E000DFE77EE7BEEFDFF7DFFFFFFFFFFFFFFF55
:1035F000FFFFFFFFFFFFFFFFDFFFDFF7FFEFDFDF73
:10360000BFD79ED7DFDFD8A583082611DBD6FFFF03
:10361000FFFFFFFFFFFFFFFF5DEFFFFFFFFFFFFF6C
:10362000FFFFFFFFFFFFFFFF79EE8BDC2131A921B8
:103630003DCFBFDF7EDF9EE7BEEFBFEFDFF7DFF7F7
:10364000DFF7DFF7DFF7BFEFBEEF9EE77EDF5ED786
:103650005ED7DFDF9AB626194208EDA3BFFFFFFF52
:10366000FFFFFFFFFFFFFFFF5DEFFFFFFFFFFFFF1C
:10367000FFFFFFFFFFFF74DDC0DB00FE42EE0242F2
:1036800089217BB6DFDF7ED77EDF7EDF9EE79EE788
:103690009EE79EE79EE77EDF7EDF5DD75DD79EDFFC
:1036A000FFE7F8A50711E31802C560FDE6D3DBEEDE
:1036B000FFFFFFFFFFFFFFFF5DEFFFFFFFFFFFFFCC
:1036C000FFFFFFFF9EF784BAC1FC42FE82FEA2FE0E
:1036D0008183452174745EC7DFDF7ED75ED75DD7F7
:1036E0005ED75ED75DD75DD75ED79EDFFFE73DC76C
:1036F000F1638408425226E629FF86FEE0F36AC39E
:10370000FFFFFFFFFFFFFFFF5DEFFFFFFFFFFFFF7B
:10371000FFFFFFFF18DEC1D2A2FD22FE42FE42FEE5
:1037200062FEE2D4416A494253743BA63EC7BFD70A
:10373000BFD7BFD7BFDFBFD73EC71AA6F263A7293F
:10374000824122B462FE83FEAAFE0FFF67FD63BAC8
:103750003CEFFFFFFFFFFFFF5DEFFFFFFFFFFFFFFE
:10376000FFFFFFFF9AE680D221FDC2FDE2F5C2F520
:1037700082F582FD62FD61DC219B846AE96A2C632B
:10378000AF6311746E632C63895A0452817AC2CB81
:10379000E2FC62FD82FDC2FDC2FDE4FD24FD62CAC1
:1037A0001CE7FFFFFFFFFFFF5DEFFFFFFFFFFFFFD6
:1037B000FFFFFFFFFFFFB1CC81D2C0F3C1FC02FDD0
:1037C00002FDE2FCC2FCC2FC81FC80FBC0C9A481FA
:1037D00035AD59CE719C218100DAA1FB82FCA2FC9F
:1037E00082FCA2FC02FD22FDE2FC00FC60DA90CC2F
:1037F000FFFFFFFFFFFFFFFF5DEFFFFFFFFFFFFF8B
:10380000FFFFFFFFFFFFFFFF59DE0DC406CBE4D231
:1038100003DB03DBE3DAC3D2A4C209B3D2BC9EF755
:10382000FFFFFFFFFFFFFBE60EB4A6BA83D2E3E281
:1038300002EB22EB22E303DBE4D26AC3B6D5FFFF3F
:10384000FFFFFFFFFFFFFFFF526F746174696F6E30
:103850003A32373000526F746174696F6E3A3138A2
:103860003000526F746174696F6E3A393000526F74
:10387000746174696F6E3A3000546573743A526FB4
:1038800074617465207465737400E6B7000027FCEA
:10389000140414A4811042084040104017FC20403A
:1038A000E0E0215022482C4620400040E59C1104D5
:1038B0001124112411241124FD2411241124112474
:1038C000112411241D24E124422402040404E5B837
:1038D0000200010000007FFC0100010001003FF830
:1038E00021082108210821082128211001000100B8
:1038F000E5850000000001800240043018086006E1
:103900001FF90100010001003FF801000100010062
:103910007FFEE58A0000000000203E20007C00229F
:1039200000227F221022102212221222224223423F
:103930003D82009CE7940000010001001FF0610C33
:10394000410441047FFC4104410441047FFC010027
:103950000102010201FCE5AD000000003FF800108B
:1039600000600080010000807FFE004000400020D9
:103970000020002018400780E68A10201020102028
:1039800013FEFC201020102015FC18843088D0482D
:1039900010501020105051882606E69C010001208E
:1039A000011001107FFC0380054005400920111023
:1039B000210841048102010001000100E69C02008F
:1039C0000200FFFE040004000FF0081018102FF092
:1039D000481088100FF00810081008500820E999C6
:1039E00000007BF84A08520853F8620852084BF866
:1039F0004A444A486A3052204210428843064200F4
:103A0000E5850080048004800840084010202010D4
:103A10004208820604000440082010203FF01010E5
:103A20000000E58F00003FF8000800087FE800086C
:103A300000081F8810881088108810881F88108838
:103A400000280010E6AC00800080FC8004FC050427
:103A500049082A401440104028A024A04510811095
:103A6000020804040802E8BF00002080133C12246E
:103A700002240224F2241224122412B41328122045
:103A80001020282047FE0000E6820900090011FCF2
:103A90003204544899501148124414441140108083
:103AA00002005104511290120FF0E7BA00000020FA
:103AB000102013FE202026244A247A2412242224B3
:103AC00023FC7C20002204227822003CE8890000AC
:103AD000000004000FF0102020207FFC20842084B0
:103AE000208420843FF82000200220021FFEE5A150
:103AF00000000000204023FE204079FC220423FC2B
:103B0000220423FC220423FC3A0465FA01980204EF
:103B1000E5850000010001007FFE0220041004087A
:103B200008043FFC0442044004400442084210429E
:103B3000607EE79F00000000207E3E804880488035
:103B400048FE48827F8208820C8214FA1284228006
:103B5000218040FEE5BD000000007F842208223065
:103B600022C0220222047FC8223022C22202220462
:103B7000220822304040E794000000007FFE000051
:103B80000FF011101110111051125FF25112511259
:103B900051124FF240027FFCE59C000000007FFEC6
:103BA00047E24812481247E24FF2501250125112A7
:103BB000511242924472580A3FFCE59B00000000FB
:103BC0003FFE440247F24C225362408243625E1A37
:103BD00041824062430240C240223FFCE78900002C
:103BE00000402040204020403FFE200020002000D8
:103BF0003FE0201020102010201040104010E698C8
:103C0000000000003FFC200420043FFC20042004AE
:103C10001FF824441448144814480C5004407FFEF4
:103C2000E7A4000000003FFC0000000000007FFE51
:103C300000800890088810881084208420824082A8
:103C40000780E88F0000002008207FFE0020007819
:103C50003F881108089009207FFE018003400D3045
:103C6000310C4002E58D00000010081004203FF8E0
:103C7000210421043FFC210421043FF801007FFEC0
:103C8000010001000100E4B8000001000100010092
:103C90003FFC2104210421042104210421043FFCD0
:103CA0000100010001000100E88B00000000082075
:103CB0007FFE0820092001003FF821082108210883
:103CC0001FF4014002200C10700EE6960000010067
:103CD000010000803F7C081008100410042002201E
:103CE00002400180018002601C18E006E7BB000072
:103CF0000000102011FE2202220249FC5800300070
:103D000013FE2528792401240D24722202A2E590B5
:103D100000000000018002400430180860061FF80F
:103D200000001FF8200420042004200420041FF8B1
:103D3000E4BA0000010001007FFE00003FF8200807
:103D40003FF83FF8400647C24824082008221022C6
:103D5000603EE5BA0000000000803FFE44105FFCBA
:103D60004410441043F040005FF84408423041C022
:103D70004360BC1EE6B50000000067C21452055245
:103D80000552C5522552055205521552175222822C
:103D900022424442483EE8AF0000000020141014C4
:103DA00017FE00120010601013F010901090109089
:103DB000149214EA1F0A0006E7A80000000019FE8A
:103DC0007202120212027DFC18001BFE34205020E9
:103DD00053FE10201020102013FEE5BA0000000052
:103DE00000803FFE400047FC4208413040C05FFE7B
:103DF000404240424044404840404440E8B0000017
:103E0000000023FE122202FA0222E22212FE1272A5
:103E1000128A128A128A16BA1A421202040EE58512
:103E200000000100010411080908091009207FFEA3
:103E30000440044004400440084208421042607CB0
:103E4000E7890000000048FE4900490049007EFE65
:103E50004182414479444528452845104528464437
:103E60000382E69D00001000100013FC7D04110485
:103E7000190418843488504850501020105010886D
:103E800013041402E689000000003F7C204020401B
:103E90003E40227E2244224422443E8420842084C8
:103EA000408441044204E5B100003FF820082008A6
:103EB0003FF8241022202FF8222022203FFC22202D
:103EC0004220442084200820E5B904407FFC0440BF
:103ED0001FF010101FF010101FF00400FFFE111053
:103EE0003FF8D116115011200100E6972080108074
:103EF00010FE0100FE0021FC20243C2424A024A06C
:103F000024BC24A024A04560553E8A00E8BD2020A2
:103F100020202020FDFC4020504093FEFC401080DB
:103F200011FC1C04F0885050102010101010E5BC3B
:103F300000007FFC08200820082008200820FFFE41
:103F400008200820082008201020102020204020D1
:103F5000E6BA000027FE1420144085FC450445FC09
:103F6000150415FC2524E42024A829242A2230A0A5
:103F70000040E6B60080204017FE11208120423C20
:103F80004244166412942348E248223022202250F0
:103F900022880306E6990FE0082008200FE0082099
:103FA00008200FE000007EFC428442847EFC4284B4
:103FB00042847EFC4284E7BD00007FFC4004400454
:103FC000421452944A54442444244A544A54529425
:103FD0006104400440144008E7AB1020082008208A
:103FE0007E20003E04204420442025FC290429048E
:103FF0000F04F104410401FC0104E68C1040102080
:10400000102013FEFA02144410401BFE3088D088A2
:10401000110810D01020105050882304E99420106B
:1040200020103B7C211441FE7A14A27C2710F97CDD
:10403000251025FE22102A10350028FE0000E6A0DB
:1040400010401020102011FEFC00108831043A02AC
:10405000548850889050105010201050108813062B
:10406000E58701404120212023FE022016201BFC71
:104070001220222023FCE2202220222023FE2200E4
:104080000200E8A720202020782049FC91247D24EC
:10409000552455247DFC552454207C28542457FE57
:1040A00045028C00E6911110111017FC1110FC0054
:1040B00013F8120817F81A0833F8D04017FC10A0AC
:1040C000111052082406E6B700000000000010009E
:1040D000000800080C7FFC04401001C8A002186012
:1040E00042301832231812C30014030004030C04D6
:1040F0007FF0080F80080B40781360183320186396
:104100001818831C1903081803000003000000009E
:10411000E59C00000000000004100C04180C0410C2
:104120008C04108C04108C04108C04D08C3F108CE8
:1041300004108C04108C04108C04108C04108C045B
:10414000108C05F08C0E208C78208C20408C008008
:104150008C01000C02000C000000E5B8000000001B
:10416000000000300000180000180800001C1FFFAD
:10417000E000180000182007FFF0041820041820A1
:1041800004182004182004182004182004182004FF
:1041900018200418200418E0041840001800001823
:1041A00000000000E4B80000000000000000000073
:1041B00000000018000018000018000018003FFF61
:1041C000FE3018063018063018063018063018066B
:1041D0003FFFFE301806001800001800001800000D
:1041E0001800001800000000000000000000E69623
:1041F000000000000000000000003800001C00006B
:104200000600FFFFFF0600300600300300600300D9
:10421000600180C000C18000E300003600001C0087
:1042200000770003C1E01E003C60000700000000B2
:104230000000000000000000E6B5000000000000E3
:1042400000000000000040000321FF3339833311D8
:104250008333019B33C19B33719B33199B33019B88
:1042600033019B33119B3319B333303033306C033C
:1042700030C6036383032E01BE000000000000006F
:104280000000E8AF00000000000000000000000097
:104290004000D83000CE1800C21C00C001FFFF0053
:1042A00000C0F800C01800C019FFC0181840181846
:1042B000601918601B18611E18311C1FB139F019E4
:1042C00010000F000000000000000000E5AD00003D
:1042D000000000060000000300000000C000000114
:1042E000C0C0000107C00001FF00021FFE0007F070
:1042F0001C0007C070000F00E0000E03F0001C0F50
:10430000F0003C0F70003C00E0001800C00000000E
:10431000C0000000C000000060000000200000009D
:1043200037000001FF00007FF80007F830001F8011
:1043300030000080300000C03000006060000018D5
:10434000E000000FC0000006000000000000E4BD17
:104350000000000000000000000000C0000000E0BD
:10436000002001B800703FF80061FFC000C30300E7
:1043700001C60600038C060003080C0006080C00AA
:104380000E18183F1E101BF31F903F0700803C1CA7
:104390000190707C019060FE01A0C3F801A00FD8CD
:1043A00003A00818036000180340001803C0001899
:1043B000038000180300001800000018000000101F
:1043C000000000300000003000000000000000008D
:1043D000E6B5000000000000000000000000000042
:1043E0000000020C1008071FF80403BFF00201BC14
:1043F000300303EC3003015C600300D8600300D895
:1044000060038098620361B8430771B1430631329B
:1044100043063376C3063A64C7063EECC0063E78D0
:10442000C0063C3040067C70000678E060067BFFEA
:10443000F006F7C00006E400000640000006000099
:1044400000060000007C00008FF000007C000000EF
:104450000000E8AF000000000000000000000000C5
:1044600000003F0000007F8000000180000000C0CD
:10447000000000C0000000CE038000CFFFC000DDC0
:1044800041800FFE0007FFFC000C00F000180FC079
:104490003E19FF40F311BC6083307FE003B1FE2082
:1044A00003338020037000300360001003600018A5
:1044B00007C0000C07C000040780000201000003D1
:1044C00000000001000000000000000000000000EB
:1044D00000000000E4440008000000200007000085
:0444E000C40100080B
:040000050800018965
:00000001FF
