:020000040800F2
:100000000807002029020008A9140008910500082B
:10001000A5140008E5020008FD1B00080000000010
:10002000000000000000000000000000C1190008EE
:10003000E902000800000000B11400084D1B000890
:10004000430200084302000843020008430200087C
:10005000430200084302000843020008430200086C
:10006000430200084302000843020008430200085C
:10007000430200084302000843020008430200084C
:10008000430200084302000843020008430200083C
:10009000430200084302000843020008430200082C
:1000A000430200084302000843020008430200081C
:1000B000430200084302000843020008430200080C
:1000C00043020008430200084302000843020008FC
:1000D00043020008430200084302000843020008EC
:1000E00043020008430200084302000843020008DC
:1000F00043020008430200084302000843020008CC
:1001000043020008430200084302000843020008BB
:1001100043020008430200084302000843020008AB
:10012000430200084302000843020008430200089B
:10013000430200084302000843020008430200088B
:10014000430200084302000843020008430200087B
:10015000430200084302000843020008430200086B
:10016000430200084302000843020008430200085B
:10017000430200084302000843020008430200084B
:10018000430200084302000800F002F800F03CF8C7
:100190000AA090E8000C82448344AAF10107DA45E2
:1001A00001D100F031F8AFF2090EBAE80F0013F0F8
:1001B000010F18BFFB1A43F0010318475028000035
:1001C00070280000103A24BF78C878C1FAD85207C6
:1001D00024BF30C830C144BF04680C6070470000C1
:1001E0000023002400250026103A28BF78C1FBD840
:1001F000520728BF30C148BF0B6070471FB501F0E0
:10020000BEFE1FBD10B510BD00F031F81146FFF75E
:10021000F5FF01F0F5FC00F04FF803B4FFF7F2FF33
:1002200003BC00F057F80000094880470948004720
:10023000FEE7FEE7FEE7FEE7FEE7FEE7FEE7FEE796
:10024000FEE7FEE704480549054A064B70470000F3
:10025000891B000889010008080100200807002008
:100260000803002008030020704770477047754658
:1002700000F02CF8AE4605006946534620F0070012
:10028000854618B020B5FFF7DDFFBDE820404FF0F0
:1002900000064FF000074FF000084FF0000BAC468F
:1002A000ACE8C009ACE8C009ACE8C009ACE8C009DA
:1002B00021F007018D46704710B50446AFF300806A
:1002C0002046BDE81040FFF7A8BF00000048704777
:1002D0000800002001491820ABBEFEE726000200FE
:1002E00070470000FFE7FEE77047000080B582B06E
:1002F0008DF807006FF0040001F00EFC9DF8070078
:10030000C10840F26E00C2F20000017000784FF4A4
:100310007A71484340F26C01C2F20001088002B0D9
:1003200080BD000080B582B0ADF80600A820FFF7C0
:10033000DDFFBDF806104DF24960CFF2B920A1FBF8
:100340000021490A8DF80510BDF80620A2FB001017
:10035000400A4FF4077100FB1120ADF80200FFE7DF
:100360009DF8050050B1FFE74FF4077000F012F858
:100370009DF8050001388DF80500F1E7BDF8020091
:1003800028B1FFE7BDF8020000F004F8FFE702B073
:1003900080BD000083B0ADF80A00BDF80A0040F24D
:1003A0006C01C2F20001098848434EF21401CEF2FA
:1003B000000108604EF21801CEF200010020086032
:1003C0004EF21001CEF20001086840F00100086012
:1003D000FFE74EF21000CEF2000000680190FFE748
:1003E00000209DF80410C907009031B1FFE79DF887
:1003F0000610012088430090FFE70098C0070028FE
:10040000E7D1FFE74EF21001CEF20001086820F0BC
:10041000010008604EF21801CEF2000100200860D1
:1004200003B0704785B004900391002002900190C2
:1004300000900290FFE702980F286CD8FFE702991E
:1004400001208840019003980068019908400090BD
:1004500000980199884259D1FFE702984100032092
:1004600000FA01F204990868904308600398007943
:100470000299490000FA01F20499086810430860E3
:1004800003980079012805D0FFE703980079022836
:1004900027D1FFE702984100032000FA01F20499F6
:1004A000886890438860039840790299490000FA6F
:1004B00001F20499886810438860BDF80810012093
:1004C00000FA01F2049948689043486003988079E3
:1004D000BDF80810884082B204994868104348600B
:1004E000FFE7BDF808004100032000FA01F204997B
:1004F000C8689043C8600398C0790299490000FA1F
:1005000001F20499C8681043C860FFE7FFE702984A
:10051000013002908FE705B07047000084B003906F
:10052000ADF80A108DF809200020019000909DF888
:100530000900BDF80A1001F0070189008840019008
:10054000BDF80A3003F0070081000F2000FA01F225
:1005500003986FF0030101EA53010144086A9043D4
:1005600008620398BDF80A1047F6FC7202EA5101CE
:100570000844006A01990843009000980399BDF867
:100580000A3002EA53021144086204B070470000C6
:10059000FFE7FEE782B001908DF803109DF803009D
:1005A00030B1FFE70199088840F48060088005E0D9
:1005B0000199088820F480600880FFE702B0704746
:1005C00087B00590049100200390029001908DF86F
:1005D00003000598808A02909DF808008007002893
:1005E00006D4FFE702986FF01001084204D0FFE73D
:1005F0000598008B019003E000208DF81B001BE0A4
:1006000001980004019002980199084320F07F406E
:100610000390039804990840884204D1FFE7012021
:100620008DF8030003E000208DF80300FFE79DF83C
:1006300003008DF81B00FFE79DF81B0007B0704713
:1006400082B001908DF803109DF8030030B1FFE7F0
:100650000199088840F00100088005E001990888A8
:1006600020F001000880FFE702B0704782B00190DF
:100670008DF803109DF8030030B1FFE70199088859
:1006800040F48070088005E00199088820F48070AB
:100690000880FFE702B0704782B001908DF8031028
:1006A0009DF8030030B1FFE70199088840F400701D
:1006B000088005E00199088820F400700880FFE7B1
:1006C00002B0704780B58AB0099008910020009070
:1006D000ADF81E00ADF81C000420ADF81A0041F280
:1006E0000020C0F27A00059009988088ADF81E00BD
:1006F000BDF81E0020F03F00ADF81E0001A800F07C
:1007000079FF00980399059105994DF68362C4F22B
:100710001B32A1FB0221890CADF81C10BDF81C2076
:10072000BDF81E101143ADF81E10BDF81E10099A39
:100730009180099A118821F001011180ADF81E0005
:100740000898006848F2A061C0F2010188421ED8F2
:10075000FFE70598089909684900B0FBF1F0ADF88A
:100760001A00BDF81A00032804DCFFE70420ADF8E6
:100770001A00FFE7BDF81A10BDF81E000843ADF8D7
:100780001E00BDF81C0001300999088446E0089855
:10079000C0884BF6FF7188420AD1FFE70598089997
:1007A000096801EB4101B0FBF1F0ADF81A000FE070
:1007B00005980899096819225143B0FBF1F0ADF88A
:1007C0001A00BDF81A0040F48040ADF81A00FFE7A7
:1007D000BDF81A00000538B9FFE7BDF81A0040F06F
:1007E0000100ADF81A00FFE7BDF81A00BDF81E10B1
:1007F000084340F40040ADF81E00BDF81C004FF463
:100800009671484344F6D351C1F26201A0FB010145
:10081000012000EB911009990884FFE7BDF81E0044
:10082000099988830999088840F00100088009988F
:100830000088ADF81E00BDF81E004FF6F5310840E7
:10084000ADF81E000899888849890143BDF81E004B
:100850000843ADF81E00BDF81E00099908800899EC
:10086000888909890843099908810AB080BD000078
:1008700081B000900098008AC0B201B070470000BB
:1008800082B001908DF803108DF802209DF80200CF
:1008900038B1FFE79DF8030040F001008DF8030038
:1008A00006E09DF8030000F0FE008DF80300FFE76E
:1008B0009DF803000199088202B0704782B0019050
:1008C0008DF803109DF803000199088202B070476B
:1008D00081B00090009941F28830086000990020B2
:1008E0008880009A4BF6FF71D180009908810099A9
:1008F000488100994FF48040888101B07047000022
:1009000080B58CB0022000900121059100F002FE1C
:1009100000990598C0220A928DF82C108DF82E00AF
:100920008DF82F0003208DF82D0040F20040C4F216
:10093000020001900AA9FFF775FD01980621042223
:100940000292FFF7EBFD0198029A0721FFF7E6FDFF
:1009500005994FF4001000F0F9FD06A80390FFF789
:10096000B7FF03990020ADF81C004FF48062ADF88A
:1009700022204FF48042ADF824204CF250320692EF
:100980004BF6FF72ADF81E20ADF8200045F2004096
:10099000C4F200000490FFF795FE04980599FFF754
:1009A0004FFE0CB080BD000080B584B0ADF80E00E5
:1009B00040F27000C2F2000001880139408801381D
:1009C0008AB283B200210091084600F019FA00F0C3
:1009D000E5FF009840F28422C4F240220121116018
:1009E0000290FFE7029840F27001C2F200014988CC
:1009F00088421AD2FFE700200190FFE7019840F2F9
:100A00007001C2F200010988884209D2FFE7BDF8EF
:100A10000E0000F057FCFFE7019801300190EDE770
:100A2000FFE7029801300290DCE700F0BFFF04B05E
:100A300080BD000080B582B08DF8070040F27001E3
:100A4000C2F200012A2048812B2088812C200881B5
:100A50009DF807000146009103283CD80099DFE883
:100A600001F002101E2C40F27001C2F20001F020D1
:100A700008804FF4A07048803620082100F012FC56
:100A80002AE040F27001C2F200014FF4A070088029
:100A9000F02048803620682100F004FC1CE040F281
:100AA0007001C2F20001F02008804FF4A07048806D
:100AB0003620C82100F0F6FB0EE040F27001C2F2D1
:100AC00000014FF4A0700880F02048803620A82153
:100AD00000F0E8FB00E0FFE702B080BD80B582B027
:100AE000ADF80600ADF80410BDF80600BDF804101E
:100AF00000F076F940F26A00C2F20000008800F0CF
:100B0000E1FB02B080BD000080B584B001210191FD
:100B1000084600F0FFFC01980721029103218DF89F
:100B20000D1000218DF80E108DF80C008DF80F00BF
:100B30000020C4F2020002A9FFF774FC04B080BDDB
:100B400080B590B000F0ACFEFFF7DEFF00F034F9A6
:100B5000CF2000F089FB00200E9000F071FBD9201F
:100B600000F06EFB302000F06BFBED2000F07CFB12
:100B7000642000F065FB032000F062FB122000906F
:100B800000F05EFB812000F05BFBE82000F06CFBD6
:100B9000852000F055FB102000F052FB7A2000F079
:100BA0004FFBCB2000F060FB392000F049FB2C20EC
:100BB00000F046FB0E9800F043FB342000F040FBB1
:100BC0000220069000F03CFBF72000F04DFB2020B7
:100BD00000F036FBEA2000F047FB0E9800F030FBF7
:100BE0000E9800F02DFBC02000F03EFB1B2000F013
:100BF00027FBC12000F038FB009800F021FBC52046
:100C000000F032FB0820019000F01AFB2620029031
:100C100000F016FBC72000F027FBB72000F010FB08
:100C20003620089000F020FB019800F009FB3A20E4
:100C300000F01AFB552000F003FBB12000F014FB7C
:100C40000E9800F0FDFA1A20039000F0F9FAB62091
:100C500000F00AFB0A20049000F0F2FAA22000F053
:100C6000EFFAF22000F000FB0E9800F0E9FA02988B
:100C700000F0FAFA01200F9000F0E2FAE02000F014
:100C8000F3FA0F200B9000F0DBFA1D20059000F026
:100C9000D7FA039800F0D4FA049800F0D1FA0D20A6
:100CA00000F0CEFA0720099000F0CAFA492000F0BF
:100CB000C7FA662000F0C4FA3B2000F0C1FA099898
:100CC00000F0BEFA11200C9000F0BAFA0F9800F074
:100CD000B7FA092000F0B4FA05200D9000F0B0FA40
:100CE0000420079000F0ACFAE12000F0BDFA0E9865
:100CF00000F0A6FA182000F0A3FA059800F0A0FA78
:100D0000069800F09DFA0B9800F09AFA079800F008
:100D100097FA089800F094FA13200A9000F090FADD
:100D20004C2000F08DFA099800F08AFA0A9800F039
:100D300087FA0B9800F084FA2E2000F081FA2F2019
:100D400000F07EFA0D9800F07BFA2B2000F08CFA70
:100D50000E9800F075FA0E9800F072FA0F9800F0F5
:100D60006FFA3F2000F06CFA2A2000F07DFA0E980E
:100D700000F066FA0E9800F063FA0E9800F060FA40
:100D8000EF2000F05DFA0C9800F06EFA0D98FFF776
:100D9000C9FA292000F068FA0E98FFF74BFE0F9869
:100DA00040F28821C4F2402108604FF6FF70FFF73F
:100DB000FBFD10B080BD000080B582B040F2802104
:100DC000C4F240210191002008600A20FFF7AAFA2E
:100DD0000199012008600520FFF7A4FA02B080BD48
:100DE00080B582B0ADF80600ADF80410BDF806205D
:100DF000BDF804301046194600F002F802B080BD7C
:100E000080B584B0ADF80E00ADF80C10ADF80A2036
:100E1000ADF8083040F27000C2F200000190807A14
:100E200000F022FA9DF80F0000F00AFA9DF80E007B
:100E300000F006FA9DF80B0000F002FA9DF80A0097
:100E400000F0FEF90198007B00F00EFA9DF80D000D
:100E500000F0F6F99DF80C0000F0F2F99DF8090099
:100E600000F0EEF99DF8080000F0EAF900F010FA41
:100E700004B080BDB0B584B094468E4604460A984E
:100E80000999089AADF80E40ADF80CE0ADF80AC02B
:100E9000ADF808308DF807208DF806108DF80500A4
:100EA00040F26A00C2F200000088ADF800009DF830
:100EB000070020388DF80700BDF80E00BDF80C10B3
:100EC0009DF8063000EB5302013A0B44013B92B20D
:100ED0009BB2FFF795FF9DF8050000285DD1FFE765
:100EE00000208DF80300FFE79DF803009DF8061031
:100EF000884251DAFFE79DF806000C2810D1FFE781
:100F00009DF8070000EB400141F6A870C0F6000014
:100F100000EB81009DF80310405C8DF804000DE0AB
:100F20009DF8071042F21C40C0F6000000EB0110D3
:100F30009DF80310405C8DF80400FFE700208DF859
:100F40000200FFE79DF802009DF80610B0EB510F7C
:100F50001BDAFFE79DF80400C00728B1FFE7BDF8E2
:100F60000A0000F0AFF904E0BDF8080000F0AAF9AB
:100F7000FFE79DF8040040088DF80400FFE79DF8A6
:100F8000020001308DF80200DCE7FFE79DF8030066
:100F900001308DF80300A7E768E000208DF803001A
:100FA000FFE79DF803009DF8061088425DDAFFE731
:100FB0009DF806000C2810D1FFE79DF8070000EB14
:100FC000400141F6A870C0F6000000EB81009DF8DA
:100FD0000310405C8DF804000DE09DF8071042F20C
:100FE0001C40C0F6000000EB01109DF80310405CAF
:100FF0008DF80400FFE700208DF80200FFE79DF860
:1010000002009DF80610B0EB510F27DAFFE7BDF89C
:101010000A0040F26A01C2F2000108809DF8040053
:10102000C00778B1FFE7BDF80E009DF80210084434
:10103000BDF80C109DF80320114480B289B2FFF76F
:101040004DFDFFE79DF8040040088DF80400FFE720
:101050009DF8020001308DF80200D0E7FFE79DF80F
:10106000030001308DF803009BE7FFE7BDF80000A7
:1010700040F26A01C2F20001088040F27000C2F240
:10108000000001880139408801388AB283B200210A
:101090000846FFF7B5FE04B0B0BD0000B0B58AB099
:1010A000ADF82600ADF8241008928DF81F3008988E
:1010B000069000208DF8170001208DF81600FFE73C
:1010C0000698102809D3FFE79DF8160001308DF827
:1010D0001600069800090690F2E700208DF815002A
:1010E000FFE79DF815009DF81610884280F2A58054
:1010F000FFE7089804909DF816109DF81500C0436E
:101100000844C1B2102000F095FD01460498B0FBE0
:10111000F1F000F00F0006909DF81700A0BBFFE76C
:101120009DF815009DF81610013988422CDAFFE76A
:10113000069820BBFFE7BDF826209DF81FC04FEAA8
:101140005C009DF8151010FB0120BDF8241040F242
:101150006A02C2F20002128840F20003C2F20003E7
:101160001B88EE460024CEF80840CEF804C04FF0AD
:10117000200CCEF800C080B2FFF77CFE57E00120C3
:101180008DF81700FFE7FFE70698092827D8FFE743
:10119000BDF826209DF81F4060089DF8151010FB33
:1011A0000120BDF8241040F26A02C2F20002128847
:1011B00040F20003C2F200031B88DDF818C00CF1F6
:1011C000300CEE460025CEF80850CEF804405FFA09
:1011D0008CFCCEF800C080B2FFF74CFE26E0BDF8D4
:1011E00026209DF81F4060089DF8151010FB012077
:1011F000BDF8241040F26A02C2F20002128840F2E6
:101200000003C2F200031B88DDF818C00CF1370C94
:10121000EE460025CEF80850CEF804405FFA8CFC6C
:10122000CEF800C080B2FFF725FEFFE7FFE79DF88C
:10123000150001308DF8150053E70AB0B0BD00006D
:1012400080B582B08DF8070000F0A8FB40F2842141
:10125000C4F24021012008609DF8070000F092FAD6
:1012600000F0A4FB02B080BD80B582B08DF807000D
:1012700000F094FB40F28421C4F240210020086079
:101280009DF8070000F07EFA00F090FB02B080BDF0
:1012900080B540F27000C2F20000007AFFF7E4FF70
:1012A00080BD000080B582B08DF80700ADF8041055
:1012B0009DF80700FFF7D8FF9DF80400FFF7C0FF77
:1012C00002B080BD80B582B0ADF8060000F066FBCC
:1012D00040F28421C4F24021012008609DF80700FB
:1012E00000F050FA9DF8060000F04CFA00F05EFBAA
:1012F00002B080BD80B582B0FFF702FB6B200121F8
:1013000000F094F86C20002100F090F819200721DB
:1013100000F08CF81A20062100F088F81B20182114
:10132000019100F083F801991C2000F07FF802B0D1
:1013300080BD000080B5752000F002F880BD00007F
:1013400080B586B08DF8170045F20040C4F2000069
:10135000049001210391FFF789F904980121C0F25B
:101360000301009100F048F80498D0210191002277
:101370000292FFF785FA04988221C0F2070100F07B
:101380003BF804989DF81710FFF798FA0498842109
:10139000C0F2070100F030F804980399FFF766F9EE
:1013A0000099049800F028F801990498039AFFF72F
:1013B00067FA04980221C0F2030100F01DF80299B7
:1013C0000498FFF7E7F804980399FFF765F9049884
:1013D0004021C0F2030100F00FF80498FFF748FA2B
:1013E0000399024604988DF81620FFF7D3F89DF86C
:1013F000160006B080BD000080B584B00390029155
:1014000042F210700190FFE703980299FFF7D8F8B5
:10141000012808D0FFE7019801380190019808B928
:10142000FFE700E0F0E704B080BD000080B584B0C5
:101430008DF80F008DF80E1045F20040C4F2000048
:10144000019001210291FFF711F901980121C0F2E9
:101450000301FFF7D1FF0198D0210022FFF710FA16
:1014600001988221C0F20701FFF7C6FF01989DF89D
:101470000F10FFF723FA01988021C0F20701FFF750
:10148000BBFF01989DF80E10FFF718FA0198842110
:10149000C0F20701FFF7B0FF01980299FFF7FCF8CF
:1014A00004B080BDFFE7FEE77047000000000000C9
:1014B000EFF30980BFF36F8F154B1A681EF0100F02
:1014C00008BF20ED108A20E9F04F10602DE90900D7
:1014D0004FF0BF0080F31188BFF34F8FBFF36F8FC2
:1014E00000F0DEFB4FF0000080F31188BDE809003A
:1014F00019680868B0E8F04F1EF0100F08BFB0EC94
:10150000108A80F30988BFF36F8F704700BF00BF58
:101510008000002082B001908DF803109DF8030038
:1015200048B1FFE7019A43F63001C4F202010868AE
:101530001043086008E0019A43F63001C4F202014A
:10154000086890430860FFE702B0704782B00190DE
:101550008DF803109DF8030048B1FFE7019A43F6A8
:101560004001C4F2020108681043086008E0019AD3
:1015700043F64001C4F20201086890430860FFE7A7
:1015800002B0704782B001908DF803109DF80300FF
:1015900048B1FFE7019A43F64401C4F2020108682A
:1015A0001043086008E0019A43F64401C4F20201C6
:1015B000086890430860FFE702B0704782B001906E
:1015C0008DF803109DF8030048B1FFE7019A43F638
:1015D0002401C4F2020108681043086008E0019A7F
:1015E00043F62401C4F20201086890430860FFE753
:1015F00002B0704788B007900021069105910491D0
:10160000022003900291019043F60800C4F2020008
:10161000006800F00C0006900698009040B1FFE7CB
:10162000009804280BD0FFE7009808280ED050E05F
:10163000079942F20040C0F2F400086050E00799B8
:1016400047F64000C0F27D10086049E043F6040010
:10165000C4F202000168C1F380510291006800F0F9
:101660003F000190029888B1FFE7019947F64000DA
:10167000C0F27D10B0FBF1F043F60401C4F20201A8
:101680000968C1F388114843049010E0019942F2BF
:101690000040C0F2F400B0FBF1F043F60401C4F2E4
:1016A00002010968C1F3881148430490FFE743F63B
:1016B0000400C4F20200006800F44031022000EB94
:1016C000D130039004980399B0FBF1F007990860BA
:1016D00006E0079942F20040C0F2F4000860FFE71C
:1016E00043F60801C4F20201086800F0F000069019
:1016F000069800090690069A41F69870C0F6000018
:10170000825C0592079B1A68DDF814C022FA0CF27D
:101710005A600A6802F4E0520692069A920A069209
:10172000069A825C0592079B5A68DDF814C022FA7B
:101730000CF29A60096801F4604106910699490B20
:1017400006910699405C059007994868059AD04033
:10175000C86008B07047000082B001908DF8031097
:101760009DF8030030B1FFE70199088840F0400080
:10177000088005E00199088820F040000880FFE714
:1017800002B0704780B582B08DF80700FFE743F2E2
:101790000000C4F20100022100F022F8012801D06B
:1017A000FFE7F4E79DF8071043F20000C4F20100E0
:1017B00000F038F8FFE743F20000C4F20100012115
:1017C00000F00EF8012801D0FFE7F4E743F2000033
:1017D000C4F2010000F020F8C0B202B080BD0000E9
:1017E00082B00190ADF8021000208DF80100019840
:1017F0000089BDF802100840000420B1FFE7012075
:101800008DF8010003E000208DF80100FFE79DF84E
:10181000010002B07047000081B0009000988089FC
:1018200001B0704782B00190ADF80210BDF802001F
:101830000199888102B0704783B002900191002025
:10184000ADF8020002980088ADF80200BDF8020071
:1018500000F44150ADF80200019908884A8810430D
:101860008A881043CA8810430A8910434A89104362
:101870008A891043C9890143BDF802000843ADF8C5
:101880000200BDF80200029908800299888B20F4BA
:10189000006088830198008A0299088203B070472B
:1018A00080B590B0012108910846FFF733FEE02093
:1018B0000E9002208DF83C00032000908DF83D0032
:1018C000002006908DF83E008DF83F000020C4F205
:1018D000020002900EA90191FEF7A4FDDDF800C000
:1018E00001990298069B089A4FF0100ECDF838E047
:1018F0008DF83C208DF83DC08DF83E308DF83F20AE
:10190000FEF790FD0298052203921146FEF706FEAF
:101910000298039A0621FEF701FE0298039A072116
:101920000591FEF7FBFD08994FF480500490FFF7F6
:1019300045FE04980699FFF741FE04980899FFF7C1
:1019400021FE059906984FF48272ADF826204FF4D7
:101950000072ADF82E20ADF82400ADF83200ADF8DD
:101960002C00ADF82A00ADF83000ADF83410ADF819
:10197000280043F20000C4F20100079009A9FFF714
:101980005BFF07980899FFF7E7FE089840F290215F
:10199000C4F24021086010B080BD000040F29021E8
:1019A000C4F24021002008607047000040F29021FE
:1019B000C4F24021012008607047000000000000D0
:1019C000074B19680868B0E8F04F80F30988BFF347
:1019D0006F8F4FF0000080F31188704700BF00BF89
:1019E0008000002083B000200290019043F60001A7
:1019F000C4F20201086840F480300860FFE743F653
:101A00000000C4F20200006800F400300190029867
:101A100001300290FFE701990020009039B9FFE7FB
:101A20000298B0F5A04018BF01200090FFE7009891
:101A3000C0070028E3D1FFE743F60000C4F202002C
:101A400000688003002803D5FFE70120019002E031
:101A500000200190FFE7019801285AD1FFE743F6E3
:101A60004001C4F20201086840F08050086047F26B
:101A70000001C4F20001086840F44040086043F6E9
:101A80000801C4F2020108680860086840F40040D8
:101A90000860086840F4A050086043F60401C4F2EE
:101AA000020145F21940C0F24070086043F600019F
:101AB000C4F20201086840F080700860FFE743F656
:101AC0000000C4F2020000688001002801D4FFE792
:101AD000F5E743F60041C4F2020140F205700860E8
:101AE00043F60801C4F20201086820F00300086010
:101AF000086840F002000860FFE743F60800C4F2FF
:101B00000200006800F00C00082801D0FFE7F4E7AD
:101B100000E0FFE703B0704781B000900098042810
:101B200009D1FFE74EF21001CEF20001086840F043
:101B30000400086008E04EF21001CEF200010868CF
:101B400020F004000860FFE701B0704780B582B064
:101B50004FF0BF0080F31188BFF36F8FBFF34F8F3B
:101B6000009000F0E7F840B1FFE74EF60451CEF2E6
:101B700000014FF080500860FFE7002001900198BD
:101B800080F3118802B080BD80B54EF68851CEF248
:101B90000001086840F47000086043F60002C4F2D7
:101BA0000202106840F00100106043F60801C4F220
:101BB00002010020086011684FF6FF73CFF6F6634C
:101BC0001940116043F60403C4F2020343F210010A
:101BD000C2F200411960116821F48021116043F6BE
:101BE0000C01C4F202010860FFF7FCFE4EF608513A
:101BF000CEF200014FF00060086080BDFFE7FEE715
:101C000080B582B0002000900190FEF799FFFFF7A9
:101C100071FBFFF78FFB0099024640F26800C2F2A9
:101C200000000270027812230846FFF737FAFFE738
:101C3000FEE7000082B08DF807008DF80610012045
:101C40000090FFE79DF80600411E8DF8061030B1A8
:101C5000FFE79DF80710009848430090F2E70098CE
:101C600002B0704740F28400C2F2000000680068D1
:101C700040B9FFE740F2F801C2F200014FF6FF70F1
:101C800008800CE040F28400C2F200000068C068E6
:101C9000008840F2F801C2F200010880FFE77047B7
:101CA00084B040F2F000C2F20000006838B1FFE7F3
:101CB00040F20411C2F200010120086037E040F256
:101CC0000411C2F200010020086040F2F400C2F2E8
:101CD0000000006803900398B0FA80F08DF80B00C4
:101CE0009DF80B00C0F11F000190019800EB8001EE
:101CF00040F28C00C2F2000000EB810000900099DD
:101D0000486840684860009948680831884205D1B1
:101D1000FFE70099486840684860FFE7009840681E
:101D2000C06840F28001C2F200010860FFE704B021
:101D30007047000080B588B00020059040F2F000A8
:101D4000C2F200000068002840F00E81FFE740F278
:101D50000211C2F2000108880130ADF81200BDF88E
:101D600012000880BDF81200C0B9FFE740F28402FB
:101D7000C2F200021068039040F28801C2F2000132
:101D8000086810600398086040F2FC01C2F200018C
:101D9000086801300860FFF765FF00E0FFE7BDF865
:101DA000120040F2F801C2F2000109888842C0F234
:101DB000BA80FFE7FFE740F28400C2F2000000684B
:101DC000006840B9FFE740F2F801C2F200014FF6A7
:101DD000FF700880A6E040F28400C2F200000068B4
:101DE000C068C068079007988088ADF81A00BDF8F1
:101DF0001200BDF81A10884208DAFFE7BDF81A0091
:101E000040F2F801C2F2000108808BE0FFE707987A
:101E10004069029007988168C0688860079988685F
:101E2000C96848600298406807990431884205D122
:101E3000FFE70798C06802994860FFE7079900200C
:101E4000486102990868013808600798806AF8B10B
:101E5000FFE70798806A01900798C169006A886067
:101E60000799C869096A486001984068079918315C
:101E7000884205D1FFE70798006A01994860FFE7AB
:101E8000079900208862019908680138086000E01D
:101E9000FFE70798C16A012000FA01F240F2F4015D
:101EA000C2F200010868104308600798C06A00EB9E
:101EB000800040F28C01C2F2000101EB800040681A
:101EC00000900098079A906000988068079AD06008
:101ED00007980430009A9268506007980430009A7E
:101EE0009060079AD06A00EB800001EB800050619F
:101EF0000798C06A00EB800251F82200013041F8D7
:101F000022000798C06A40F28001C2F2000109680D
:101F1000C96A884203D9FFE70120059000E0FFE786
:101F2000FFE748E7FFE740F28000C2F200000068E8
:101F3000C06A00EB800140F28C00C2F2000050F851
:101F40002100022803D3FFE70120059000E0FFE70E
:101F500040F20410C2F20000006818B1FFE701204F
:101F6000059000E0FFE707E040F20011C2F2000137
:101F7000088801300880FFE7059808B080BDF1EEC1
:101F8000100A4FF6FF71C0F2C03120EA010040F0A4
:101F90004070E1EE100A70470000000001020304E7
:101FA0000102030406070809000000000000000009
:101FB0000000000000000404040404040004000005
:101FC00000140A0A000000000000000000001414C1
:101FD0003F140A3F0A0A000000041E1505060C14EF
:101FE000150F0400000012150D0A142C2A1200000F
:101FF0000000040A0A1E151509360000000202013D
:102000000000000000000000002010080808080878
:10201000081020000002040808080808080402004C
:1020200000000004150E0E1504000000000004045A
:10203000041F040404000000000000000000000071
:102040000002020100000000001F0000000000006C
:10205000000000000000000000020000001008085E
:10206000080404020202010000000E1111111111F6
:10207000110E00000000040604040404040E000015
:1020800000000E1111080402011F000000000E11D3
:10209000100C1010110E00000000080C0A0A091E96
:1020A0000818000000001F01010F1010110E0000A1
:1020B00000000E09010F1111110E000000001F0990
:1020C000080404040404000000000E11110E111194
:1020D000110E000000000E1111111E10120E000052
:1020E00000000000040000000004000000000000E8
:1020F000000400000004040000201008040204088A
:1021000010200000000000001F00001F0000000061
:1021100000020408102010080402000000000E1144
:10212000110804040004000000000E111915151D0B
:10213000011E0000000004040C0A0A1E12330000F5
:1021400000000F12120E1212120F000000001E11DA
:1021500001010101110E000000000F1212121212F3
:10216000120F000000001F120A0E0A02121F0000C8
:1021700000001F120A0E0A020207000000001C12D3
:1021800001013911120C000000003312121E12124C
:102190001233000000001F0404040404041F0000A4
:1021A00000003E0808080808080907000000371268
:1021B0000A060A0A123700000000070202020202A1
:1021C000223F000000001B1B1B1B151515150000EE
:1021D00000003B1216161A1A1217000000000E110A
:1021E00011111111110E000000000F12120E020247
:1021F0000207000000000E1111111117190E18002E
:1022000000000F12120E0A121237000000001E11F9
:1022100001060810110F000000001F15040404043B
:10222000040E00000000331212121212120C0000F1
:1022300000003312120A0A0C0404000000001515F5
:10224000150E0A0A0A0A000000001B0A0A04040A02
:102250000A1B000000001B0A0A040404040E00000C
:1022600000001F0908040402121F0000001C0404DF
:102270000404040404041C0000020202040408080C
:1022800008100000000E08080808080808080E00DA
:1022900000040A0000000000000000000000000030
:1022A000000000000000003F0004000000000000EB
:1022B0000000000000000000000C121C123C000096
:1022C00000000302020E1212120E000000000000B5
:1022D000001C1202021C000000001810101C121238
:1022E000123C000000000000000C121E021C000046
:1022F00000003804041E0404041E00000000000056
:10230000003C120C021E221C00000302020E1212DC
:10231000123700000000040000060404040E000050
:1023200000000800000C0808080808070000030265
:10233000023A0A0E123700000000070404040404E5
:10234000041F000000000000000F15151515000007
:1023500000000000000F1212123700000000000001
:10236000000C1212120C000000000000000F1212EC
:10237000120E020700000000001C1212121C10387E
:1023800000000000001B0602020700000000000021
:10239000001E020C101E000000000004040E0404C5
:1023A0000418000000000000001B1212123C000084
:1023B000000000000037120A0C04000000000000BA
:1023C0000015150E0A0A000000000000001B0A0498
:1023D0000A1B0000000000000037120A0C0404036E
:1023E00000000000001E0804041E00000018080879
:1023F0000804080808081800080808080808080859
:10240000080808080006040404080404040406007C
:10241000022518000000000000000000000000007D
:1024200000000000000000000000000000000008A4
:1024300008080808080800001818000000486C2464
:102440001200000000000000000000000000002456
:1024500024247F1212127F12121200000000081CA6
:102460002A2A0A0C1828282A2A1C080800000022F8
:10247000251515152A585454542200000000000C4C
:102480001212120A76252911916E00000006060428
:1024900003000000000000000000000000402010C9
:1024A000100808080808081010204000000204085E
:1024B000081010101010100808040200000000009E
:1024C00008086B1C1C6B08080000000000000000DE
:1024D000080808087F08080808000000000000003D
:1024E00000000000000000000606040300000000D9
:1024F00000000000FE0000000000000000000000DE
:1025000000000000000000000606000000008040FF
:1025100040202010100808040402020000000018E7
:102520002442424242424242241800000000000875
:102530000E08080808080808083E00000000003CD3
:102540004242422020100804427E00000000003C6D
:102550004242201820404042221C0000000000207F
:102560003028242422227E20207800000000007ED3
:102570000202021A26404042221C000000000038DD
:102580002402021A26424242241800000000007E63
:102590002222101008080808080800000000003C6B
:1025A0004242422418244242423C000000000018EB
:1025B0002442424264584040241C000000000000B5
:1025C00000001818000000001818000000000000AB
:1025D000000000080000000000080804000000409F
:1025E0002010080402040810204000000000000031
:1025F00000007F0000007F000000000000000002DB
:102600000408102040201008040200000000003CD4
:102610004242464020101000181800000000001C24
:10262000225A555555552D42221C00000000000825
:1026300008181414243C224242E700000000001F46
:102640002222221E22424242221F00000000007C61
:102650004242010101010142221C00000000001F52
:102660002242424242424242221F00000000003FFA
:102670004212121E12120242423F00000000003FAE
:102680004212121E12120202020700000000003C59
:102690002222010101712122221C0000000000E71A
:1026A000424242427E42424242E700000000003E77
:1026B0000808080808080808083E00000000007C18
:1026C00010101010101010101010110F00000077D3
:1026D00022120A0E0A1212222277000000000007BE
:1026E0000202020202020202427F000000000077A2
:1026F000363636362A2A2A2A2A6B0000000000E3E2
:1027000046464A4A52525262624700000000001C8C
:102710002241414141414141221C00000000003F53
:10272000424242423E020202020700000000001C38
:102730002241414141414D53321C60000000003FA5
:102740004242423E1212222242C700000000007C98
:102750004242020418204042423E00000000007F36
:102760004908080808080808081C0000000000E7DD
:102770004242424242424242423C0000000000E7E4
:102780004242222424141418080800000000006BA0
:10279000494949495555362222220000000000E7E8
:1027A000422424181818242442E70000000000776F
:1027B0002222141408080808081C00000000007EEB
:1027C0002120101008040442423F0000007808084D
:1027D000080808080808080808087800000002022D
:1027E000040408080810102020204040001E10108B
:1027F000101010101010101010101E00003844009F
:1028000000000000000000000000000000000000C8
:102810000000000000000000000000FF00060800AB
:1028200000000000000000000000000000000000A8
:102830000000003C4278444242FC000000000003DB
:102840000202021A26424242261A0000000000003C
:10285000000000384402020244380000000000601A
:10286000404040784442424264D8000000000000EA
:102870000000003C427E0202423C0000000000F0EA
:102880008808087E08080808083E000000000000CC
:102890000000007C22221C023C42423C000000035B
:1028A0000202023A4642424242E700000000000CA7
:1028B0000C00000E08080808083E00000000003068
:1028C00030000038202020202020221E000000039D
:1028D00002020272120A1612227700000000000E95
:1028E0000808080808080808083E00000000000062
:1028F0000000007F9292929292B7000000000000C8
:102900000000003B4642424242E700000000000057
:102910000000003C42424242423C000000000000F5
:102920000000001B26424242221E02070000000057
:102930000000007844424242447840E00000000039
:10294000000000774C040404041F00000000000095
:102950000000007C42023C40423E000000000000BB
:102960000008083E080808080830000000000000C1
:10297000000000634242424262DC000000000000AE
:10298000000000E7422424140808000000000000B2
:10299000000000EB494955552222000000000000CC
:1029A0000000007624181818246E000000000000B3
:1029B000000000E742242414180808070000000063
:1029C0000000007E22100808447E000000C0202085
:1029D00020202010202020202020C00010101010C7
:1029E0001010101010101010101010100006080811
:1029F0000808081008080808080806000C32C20079
:102A0000000000000000000000000000302A000864
:102A10000000002008000000C4010008382A000857
:102A20000800002000070000E0010008000000008E
:082A3000FFFF000000000000A0
:040000050800018965
:00000001FF
