:020000040800F2
:10000000F80600200D0200089D0900083D040008C4
:1000100099090008C90200086D0F000800000000DF
:10002000000000000000000000000000110D0008AA
:10003000CD02000800000000F1090008BD0E000814
:1000400027020008270200082702000827020008EC
:1000500027020008270200082702000827020008DC
:1000600027020008270200082702000827020008CC
:1000700027020008270200082702000827020008BC
:1000800027020008270200082702000827020008AC
:10009000270200082702000827020008270200089C
:1000A000270200082702000827020008270200088C
:1000B000270200082702000827020008270200087C
:1000C000270200082702000827020008270200086C
:1000D000270200082702000827020008270200085C
:1000E000270200082702000827020008270200084C
:1000F000270200082702000827020008270200083C
:10010000270200082702000827020008270200082B
:10011000270200082702000827020008270200081B
:10012000270200082702000827020008270200080B
:1001300027020008270200082702000827020008FB
:1001400027020008270200082702000827020008EB
:1001500027020008270200082702000827020008DB
:1001600027020008270200082702000827020008CB
:1001700027020008270200082702000827020008BB
:10018000270200082702000800F002F800F02EF80D
:100190000AA090E8000C82448344AAF10107DA45E2
:1001A00001D100F023F8AFF2090EBAE80F0013F006
:1001B000010F18BFFB1A43F001031847001100009C
:1001C000101100000023002400250026103A28BF4B
:1001D00078C1FBD8520728BF30C148BF0B607047B9
:1001E0001FB501F05EF81FBD10B510BD00F031F86D
:1001F0001146FFF7F5FF00F0BBFE00F04FF803B427
:10020000FFF7F2FF03BC00F057F8000009488047F1
:1002100009480047FEE7FEE7FEE7FEE7FEE7FEE7E8
:10022000FEE7FEE7FEE7FEE704480549054A064B00
:1002300070470000F90E000889010008F80000204E
:10024000F8060020F8020020F802002070477047EE
:100250007047754600F02CF8AE46050069465346D7
:1002600020F00700854618B020B5FFF7DDFFBDE898
:1002700020404FF000064FF000074FF000084FF00D
:10028000000BAC46ACE8C009ACE8C009ACE8C0095A
:10029000ACE8C00921F007018D46704710B504464F
:1002A000AFF300802046BDE81040FFF7A8BF000074
:1002B000004870470000002001491820ABBEFEE74F
:1002C0002600020070470000FFE7FEE770470000CD
:1002D00080B582B0ADF80600BDF8060040F26E01B0
:1002E000C2F20001088049F24000C0F2020000F0B2
:1002F000BBFDFFE740F26E00C2F20000008808B1CB
:10030000FFE7F7E74EF21001CEF20001002008608F
:1003100002B080BD85B0049003910020029001904E
:1003200000900290FFE702980F286CD8FFE702992F
:1003300001208840019003980068019908400090CE
:1003400000980199884259D1FFE7029841000320A3
:1003500000FA01F204990868904308600398007954
:100360000299490000FA01F20499086810430860F4
:1003700003980079012805D0FFE703980079022847
:1003800027D1FFE702984100032000FA01F2049907
:10039000886890438860039840790299490000FA80
:1003A00001F20499886810438860BDF808100120A4
:1003B00000FA01F2049948689043486003988079F4
:1003C000BDF80810884082B204994868104348601C
:1003D000FFE7BDF808004100032000FA01F204998C
:1003E000C8689043C8600398C0790299490000FA30
:1003F00001F20499C8681043C860FFE7FFE702985C
:10040000013002908FE705B07047000082B0019084
:10041000ADF802108DF801209DF8010028B1FFE72A
:10042000BDF802000199886105E0BDF802000004F2
:1004300001998861FFE702B070470000FFE7FEE71F
:1004400080B584B0ADF80E0040F26000C2F200004A
:1004500001880139408801388AB283B200210091B5
:10046000084600F0FDF900981822C4F202024FF489
:1004700080111160022111600290FFE7029840F2A2
:100480006001C2F20001498888421AD2FFE70020C9
:100490000190FFE7019840F26001C2F20001098873
:1004A000884209D2FFE7BDF80E0000F05BFAFFE7D3
:1004B000019801300190EDE7FFE7029801300290CA
:1004C000DCE71821C4F202011020086004B080BDEE
:1004D00080B582B08DF8070040F26001C2F20001E1
:1004E0002A2048812B2088812C2008819DF8070034
:1004F0000146009103283CD80099DFE801F0021082
:100500001E2C40F26001C2F20001F02008804FF47E
:10051000A07048803620082100F014FA2AE040F24A
:100520006001C2F200014FF4A0700880F020488002
:100530003620682100F006FA1CE040F26001C2F2A9
:100540000001F02008804FF4A07048803620C821B8
:1005500000F0F8F90EE040F26001C2F200014FF441
:10056000A0700880F02048803620A82100F0EAF929
:1005700000E0FFE702B080BD80B584B00220012119
:10058000019100F067FA019940F28820C4F24020FE
:10059000006840F00300029003208DF80D00002059
:1005A0008DF80E008DF80C108DF80F0040F2004011
:1005B000C4F2020002A9FFF7ADFE04B080BD000046
:1005C00080B592B000F022FBFFF7D6FF00F034F9BF
:1005D000CF2000F095F90020109000F07BF9D92091
:1005E00000F078F9302000F075F9ED2000F088F97E
:1005F000642000F06FF9032000F06CF912200190E4
:1006000000F068F9812000F065F9E82000F078F941
:10061000852000F05FF9102000F05CF97A2000F0EE
:1006200059F9CB2000F06CF9392000F053F92C2057
:1006300000F050F9109800F04DF9342000F04AF91C
:100640000220079000F046F9F72000F059F9202029
:1006500000F040F9EA2000F053F9109800F03AF960
:10066000109800F037F9C02000F04AF91B2000F084
:1006700031F9C12000F044F9019800F02BF9C520B0
:1006800000F03EF90820029000F024F926200390A3
:1006900000F020F9C72000F033F9B72000F01AF974
:1006A0003620099000F02CF9029800F013F93A2056
:1006B00000F026F9552000F00DF9B12000F020F9E6
:1006C000109800F007F91A20049000F003F9B62002
:1006D00000F016F90A20059000F0FCF8A22000F0C6
:1006E000F9F8F22000F00CF9109800F0F3F80398F4
:1006F00000F006F90120119000F0ECF8E02000F085
:10070000FFF80F200C9000F0E5F81D20069000F097
:10071000E1F8049800F0DEF8059800F0DBF80D2011
:1007200000F0D8F807200A9000F0D4F8492000F033
:10073000D1F8662000F0CEF83B2000F0CBF80A9804
:1007400000F0C8F811200E9000F0C4F8119800F0E5
:10075000C1F8092000F0BEF805200D9000F0BAF8AD
:100760000420089000F0B6F8E12000F0C9F81098D5
:1007700000F0B0F818200F9000F0ACF8069800F0E8
:10078000A9F8079800F0A6F80C9800F0A3F80898CC
:1007900000F0A0F8099800F09DF813200B9000F0ED
:1007A00099F84C2000F096F80A9800F093F80B980E
:1007B00000F090F80C9800F08DF82E2000F08AF8E8
:1007C0002F2000F087F80D9800F084F82B2000F01F
:1007D00097F8109800F07EF8109800F07BF81198C8
:1007E00000F078F83F2000F075F82A2000F088F833
:1007F000109800F06FF8109800F06CF8109800F066
:1008000069F8EF2000F066F80E9800F079F80F987C
:10081000FFF75EFD292000F073F81098FFF758FEEF
:10082000119840F28821C4F2402108604FF6FF7011
:10083000FFF706FE12B080BD80B582B01821C4F269
:10084000020101914FF4803008600A20FFF740FD5B
:100850000199012008600520FFF73AFD02B080BD34
:1008600080B584B0ADF80E00ADF80C10ADF80A20DC
:10087000ADF8083040F26000C2F200000190807ACA
:1008800000F03EF89DF80F0000F024F89DF80E00EF
:1008900000F020F89DF80B0000F01CF89DF80A000D
:1008A00000F018F80198007B00F02AF89DF80D0080
:1008B00000F010F89DF80C0000F00CF89DF809000D
:1008C00000F008F89DF8080000F004F800F030F897
:1008D00004B080BD80B582B08DF807001821C4F245
:1008E000020100914FF480100860022008609DF81A
:1008F000070000F0FDF800991020086002B080BDEC
:1009000080B582B08DF807001821C4F20201009171
:100910004FF4801008604FF4003008609DF8070025
:1009200000F0E6F800991020086002B080BD0000D9
:1009300080B540F26000C2F20000007AFFF7E0FFED
:1009400080BD000080B582B08DF80700ADF80410BE
:100950009DF80700FFF7D4FF9DF80400FFF7BAFFEA
:1009600002B080BD80B582B0ADF806001821C4F297
:10097000020100914FF480100860022008609DF889
:10098000070000F0B5F89DF8060000F0B1F80099F6
:100990001020086002B080BDFFE7FEE7704700004E
:1009A00082B08DF8070000919DF90700B0F1FF3F7C
:1009B0000CDCFFE7009800019DF8071001F00F0123
:1009C0004EF61452CEF20002885409E0009800015D
:1009D0009DF907104EF20042CEF200028854FFE764
:1009E00002B070470000000000000000000000009E
:1009F000EFF30980BFF36F8F154B1A681EF0100FCD
:100A000008BF20ED108A20E9F04F10602DE90900A1
:100A10004FF0BF0080F31188BFF34F8FBFF36F8F8C
:100A200000F0D0FA4FF0000080F31188BDE8090013
:100A300019680868B0E8F04F1EF0100F08BFB0EC5E
:100A4000108A80F30988BFF36F8F704700BF00BF23
:100A50007000002082B001908DF803109DF8030013
:100A600048B1FFE7019A43F63001C4F20201086879
:100A70001043086008E0019A43F63001C4F2020115
:100A8000086890430860FFE702B0704782B00190A9
:100A90008DF803109DF8030048B1FFE7019A43F673
:100AA0004401C4F2020108681043086008E0019A9A
:100AB00043F64401C4F20201086890430860FFE76E
:100AC00002B0704782B001908DF803109DF80300CA
:100AD00030B1FFE70199088840F04000088005E048
:100AE0000199088820F040000880FFE702B07047B5
:100AF00080B582B08DF80700FFE743F20000C4F232
:100B00000100022100F022F8012801D0FFE7F4E7FC
:100B10009DF8071043F20000C4F2010000F038F81D
:100B2000FFE743F20000C4F20100012100F00EF8DB
:100B3000012801D0FFE7F4E743F20000C4F201000E
:100B400000F020F8C0B202B080BD000082B0019079
:100B5000ADF8021000208DF8010001980089BDF861
:100B600002100840000420B1FFE701208DF80100C9
:100B700003E000208DF80100FFE79DF8010002B0BE
:100B80007047000081B000900098808901B07047E4
:100B900082B00190ADF80210BDF802000199888181
:100BA00002B0704783B0029001910020ADF80200BE
:100BB00002980088ADF80200BDF8020000F4415030
:100BC000ADF80200019908884A8810438A881043CA
:100BD000CA8810430A8910434A8910438A891043FE
:100BE000C9890143BDF802000843ADF80200BDF811
:100BF0000200029908800299888B20F400608883A3
:100C00000198008A0299088203B0704780B58EB0BF
:100C1000012106910846FFF71DFFA0200C9002203D
:100C20008DF83400032001908DF8350000200490E9
:100C30008DF836008DF837000020C4F202000290D3
:100C40000CA90391FFF766FB019B02980399049A94
:100C5000DDF818C04FF0100ECDF830E08DF834C03C
:100C60008DF835308DF836208DF83720FFF752FBA0
:100C7000019B02980399DDF810C0069A4FF0400ED0
:100C8000CDF830E08DF834C08DF835308DF8372050
:100C9000FFF740FB06994FF48050FFF7F7FE0498EA
:100CA0004FF48271ADF81E104FF40071ADF82610AC
:100CB000ADF81C00ADF82A00ADF82400ADF8220014
:100CC000ADF828000721ADF82C10ADF8200043F254
:100CD0000000C4F20100059007A9FFF763FF059823
:100CE0000699FFF7EFFE069800F002F80EB080BDFF
:100CF00080B582B08DF807009DF807200020C4F26F
:100D000002001021FFF782FB02B080BD000000004E
:100D1000074B19680868B0E8F04F80F30988BFF303
:100D20006F8F4FF0000080F31188704700BF00BF45
:100D30007000002083B000200290019043F6000173
:100D4000C4F20201086840F480300860FFE743F60F
:100D50000000C4F20200006800F400300190029824
:100D600001300290FFE701990020009039B9FFE7B8
:100D70000298B0F5A04018BF01200090FFE700984E
:100D8000C0070028E3D1FFE743F60000C4F20200E9
:100D900000688003002803D5FFE70120019002E0EE
:100DA00000200190FFE7019801285AD1FFE743F6A0
:100DB0004001C4F20201086840F08050086047F228
:100DC0000001C4F20001086840F44040086043F6A6
:100DD0000801C4F2020108680860086840F4004095
:100DE0000860086840F4A050086043F60401C4F2AB
:100DF000020145F21940C0F24070086043F600015C
:100E0000C4F20201086840F080700860FFE743F612
:100E10000000C4F2020000688001002801D4FFE74E
:100E2000F5E743F60041C4F2020140F205700860A4
:100E300043F60801C4F20201086820F003000860CC
:100E4000086840F002000860FFE743F60800C4F2BB
:100E50000200006800F00C00082801D0FFE7F4E76A
:100E600000E0FFE703B0704780B582B000900098C3
:100E70000138B0F1807F03D3FFE70120019019E032
:100E8000009801384EF21401CEF2000108604FF0D4
:100E9000FF300F21FFF784FD4EF21801CEF2000162
:100EA000002008604EF21002CEF20002072111600D
:100EB0000190FFE7019802B080BD000080B582B0CC
:100EC0004FF0BF0080F31188BFF36F8FBFF34F8FD8
:100ED000009000F0C1F840B1FFE74EF60451CEF2A9
:100EE00000014FF080500860FFE70020019001985A
:100EF00080F3118802B080BD80B54EF68851CEF2E5
:100F00000001086840F47000086043F60002C4F273
:100F10000202106840F00100106043F60801C4F2BC
:100F200002010020086011684FF6FF73CFF6F663E8
:100F30001940116043F60403C4F2020343F21001A6
:100F4000C2F200411960116821F48021116043F65A
:100F50000C01C4F202010860FFF7ECFE4EF60851E6
:100F6000CEF200014FF00060086080BDFFE7FEE7B1
:100F700080B582B000200190FFF722FB1F20FFF711
:100F80005FFAFFE7FEE7000040F27400C2F20000E3
:100F90000068006840B9FFE740F2E801C2F20001D2
:100FA0004FF6FF7008800CE040F27400C2F20000BF
:100FB0000068C068008840F2E801C2F200010880C1
:100FC000FFE7704784B040F2E000C2F20000006822
:100FD00038B1FFE740F2F401C2F2000101200860DD
:100FE00037E040F2F401C2F200010020086040F254
:100FF000E400C2F20000006803900398B0FA80F0A9
:101000008DF80B009DF80B00C0F11F0001900198B6
:1010100000EB800140F27C00C2F2000000EB810096
:101020000090009948684068486000994868083115
:10103000884205D1FFE70099486840684860FFE7AB
:1010400000984068C06840F27001C2F20001086078
:10105000FFE704B07047000080B588B0002005901D
:1010600040F2E000C2F200000068002840F00E816B
:10107000FFE740F2F201C2F2000108880130ADF84A
:101080001200BDF812000880BDF81200C0B9FFE7D9
:1010900040F27402C2F200021068039040F278013C
:1010A000C2F20001086810600398086040F2EC0189
:1010B000C2F20001086801300860FFF765FF00E038
:1010C000FFE7BDF8120040F2E801C2F20001098812
:1010D0008842C0F2BA80FFE7FFE740F27400C2F234
:1010E00000000068006840B9FFE740F2E801C2F282
:1010F00000014FF6FF700880A6E040F27400C2F2D3
:1011000000000068C068C068079007988088ADF844
:101110001A00BDF81200BDF81A10884208DAFFE77D
:10112000BDF81A0040F2E801C2F2000108808BE02D
:10113000FFE707984069029007988168C068886057
:1011400007998868C968486002984068079904311F
:10115000884205D1FFE70798C06802994860FFE719
:1011600007990020486102990868013808600798CB
:10117000806AF8B1FFE70798806A01900798C16913
:10118000006A88600799C869096A486001984068E0
:1011900007991831884205D1FFE70798006A01993D
:1011A0004860FFE7079900208862019908680138C4
:1011B000086000E0FFE70798C16A012000FA01F229
:1011C00040F2E401C2F20001086810430860079889
:1011D000C06A00EB800040F27C01C2F2000101EB2A
:1011E0008000406800900098079A9060009880689E
:1011F000079AD06007980430009A92685060079868
:101200000430009A9060079AD06A00EB800001EBEE
:10121000800050610798C06A00EB800251F82200FC
:10122000013041F822000798C06A40F27001C2F212
:1012300000010968C96A884203D9FFE701200590C7
:1012400000E0FFE7FFE748E7FFE740F27000C2F287
:1012500000000068C06A00EB800140F27C00C2F22E
:10126000000050F82100022803D3FFE70120059079
:1012700000E0FFE740F2F400C2F20000006818B19D
:10128000FFE70120059000E0FFE707E040F2F001F2
:10129000C2F20001088801300880FFE7059808B015
:1012A00080BDF1EE100A4FF6FF71C0F2C03120EAA6
:1012B000010040F04070E1EE100A7047CC120008C7
:0C12C00000000020F8060000C401000837
:040000050800018965
:00000001FF
