:020000040800F2
:10000000F00600200D0200083D0500083505000837
:1000100039050008C90200081D080008000000009A
:10002000000000000000000000000000E1050008E2
:10003000CD02000800000000410500086D0700081F
:1000400027020008270200082702000827020008EC
:1000500027020008270200082702000827020008DC
:1000600027020008270200082702000827020008CC
:1000700027020008270200082702000827020008BC
:1000800027020008270200082702000827020008AC
:10009000270200082702000827020008270200089C
:1000A000270200082702000827020008270200088C
:1000B000270200082702000827020008270200087C
:1000C000270200082702000827020008270200086C
:1000D000270200082702000827020008270200085C
:1000E000270200082702000827020008270200084C
:1000F000270200082702000827020008270200083C
:10010000270200082702000827020008270200082B
:10011000270200082702000827020008270200081B
:10012000270200082702000827020008270200080B
:1001300027020008270200082702000827020008FB
:1001400027020008270200082702000827020008EB
:1001500027020008270200082702000827020008DB
:1001600027020008270200082702000827020008CB
:1001700027020008270200082702000827020008BB
:10018000270200082702000800F002F800F02EF80D
:100190000AA090E8000C82448344AAF10107DA45E2
:1001A00001D100F023F8AFF2090EBAE80F0013F006
:1001B000010F18BFFB1A43F001031847F4090000B0
:1001C000040A00000023002400250026103A28BF5E
:1001D00078C1FBD8520728BF30C148BF0B607047B9
:1001E0001FB500F0D8FC1FBD10B510BD00F031F8F0
:1001F0001146FFF7F5FF00F013FB00F04FF803B4D2
:10020000FFF7F2FF03BC00F057F8000009488047F1
:1002100009480047FEE7FEE7FEE7FEE7FEE7FEE7E8
:10022000FEE7FEE7FEE7FEE704480549054A064B00
:1002300070470000A907000889010008F0000020AD
:10024000F0060020F0020020F00200207047704706
:100250007047754600F02CF8AE46050069465346D7
:1002600020F00700854618B020B5FFF7DDFFBDE898
:1002700020404FF000064FF000074FF000084FF00D
:10028000000BAC46ACE8C009ACE8C009ACE8C0095A
:10029000ACE8C00921F007018D46704710B504464F
:1002A000AFF300802046BDE81040FFF7A8BF000074
:1002B000004870470000002001491820ABBEFEE74F
:1002C0002600020070470000FFE7FEE770470000CD
:1002D00080B582B08DF807006FF0040000F02CFAB2
:1002E0009DF80700C10840F26200C2F200000170F0
:1002F00000784FF47A71484340F26001C2F2000185
:10030000088002B080BD000080B582B0ADF8060064
:10031000A820FFF7DDFFBDF806104DF24960CFF2CF
:10032000B920A1FB0021490A8DF80510BDF806206F
:10033000A2FB0010400A4FF4077100FB1120ADF83A
:100340000200FFE79DF8050050B1FFE74FF407708A
:1003500000F012F89DF8050001388DF80500F1E76E
:10036000BDF8020028B1FFE7BDF8020000F004F874
:10037000FFE702B080BD000080B584B0ADF80E008C
:10038000A820FFF7A5FFBDF80E0040F26001C2F201
:100390000001098848434EF21401CEF200010860C2
:1003A0004EF21801CEF20001002008604EF210015A
:1003B000CEF20001086840F001000860FFE74EF24D
:1003C0001000CEF2000000680290FFE700209DF8C8
:1003D0000810C907019031B1FFE79DF80A1001200C
:1003E00088430190FFE70198C0070028E7D1FFE7A5
:1003F0004EF21001CEF20001086820F00100086002
:100400004EF21801CEF200010020086004B080BD59
:1004100085B004900391002002900190009002901A
:10042000FFE702980F286CD8FFE702990120884067
:100430000190039800680199084000900098019984
:10044000884259D1FFE702984100032000FA01F2E7
:10045000049908689043086003980079029949005C
:1004600000FA01F2049908681043086003980079C3
:10047000012805D0FFE703980079022827D1FFE77C
:1004800002984100032000FA01F204998868904321
:100490008860039840790299490000FA01F20499B2
:1004A000886810438860BDF80810012000FA01F246
:1004B000049948689043486003988079BDF8081013
:1004C000884082B20499486810434860FFE7BDF84D
:1004D00008004100032000FA01F20499C868904323
:1004E000C8600398C0790299490000FA01F20499A2
:1004F000C8681043C860FFE7FFE702980130029028
:100500008FE705B07047000082B00190ADF802108F
:10051000BDF8020000040199886102B07047000034
:1005200082B00190ADF80210BDF802000199886117
:1005300002B07047FFE7FEE7FFE7FEE77047000005
:10054000EFF30980BFF36F8F154B1A681EF0100F81
:1005500008BF20ED108A20E9F04F10602DE9090056
:100560004FF0BF0080F31188BFF34F8FBFF36F8F41
:1005700000F0A2F94FF0000080F31188BDE80900F7
:1005800019680868B0E8F04F1EF0100F08BFB0EC13
:10059000108A80F30988BFF36F8F704700BF00BFD8
:1005A0006400002082B001908DF803109DF80300D4
:1005B00048B1FFE7019A43F63001C4F2020108682E
:1005C0001043086008E0019A43F63001C4F20201CA
:1005D000086890430860FFE702B070470000000021
:1005E000074B19680868B0E8F04F80F30988BFF33B
:1005F0006F8F4FF0000080F31188704700BF00BF7D
:100600006400002083B000200290019043F60001B6
:10061000C4F20201086840F480300860FFE743F646
:100620000000C4F20200006800F40030019002985B
:1006300001300290FFE701990020009039B9FFE7EF
:100640000298B0F5A04018BF01200090FFE7009885
:10065000C0070028E3D1FFE743F60000C4F2020020
:1006600000688003002803D5FFE70120019002E025
:1006700000200190FFE7019801285AD1FFE743F6D7
:100680004001C4F20201086840F08050086047F25F
:100690000001C4F20001086840F44040086043F6DD
:1006A0000801C4F2020108680860086840F40040CC
:1006B0000860086840F4A050086043F60401C4F2E2
:1006C000020145F21940C0F24070086043F6000193
:1006D000C4F20201086840F080700860FFE743F64A
:1006E0000000C4F2020000688001002801D4FFE786
:1006F000F5E743F60041C4F2020140F205700860DC
:1007000043F60801C4F20201086820F00300086003
:10071000086840F002000860FFE743F60800C4F2F2
:100720000200006800F00C00082801D0FFE7F4E7A1
:1007300000E0FFE703B0704781B000900098042804
:1007400009D1FFE74EF21001CEF20001086840F037
:100750000400086008E04EF21001CEF200010868C3
:1007600020F004000860FFE701B0704780B582B058
:100770004FF0BF0080F31188BFF36F8FBFF34F8F2F
:10078000009000F0E3F840B1FFE74EF60451CEF2DE
:1007900000014FF080500860FFE7002001900198B1
:1007A00080F3118802B080BD80B54EF68851CEF23C
:1007B0000001086840F47000086043F60002C4F2CB
:1007C0000202106840F00100106043F60801C4F214
:1007D00002010020086011684FF6FF73CFF6F66340
:1007E0001940116043F60403C4F2020343F21001FE
:1007F000C2F200411960116821F48021116043F6B2
:100800000C01C4F202010860FFF7FCFE4EF608512D
:10081000CEF200014FF00060086080BDFFE7FEE708
:1008200080B588B000200190079001210291084610
:10083000FFF7B8FE019902984FF480720492059276
:100840008DF8180003228DF819208DF81A108DF8F4
:100850001B000020C4F20200039005A9FFF7D8FD99
:1008600003980499FFF75CFE4FF47A70FFF74CFD94
:1008700003980499FFF748FEFFE7FEE740F268009F
:10088000C2F200000068006840B9FFE740F2DC01F6
:10089000C2F200014FF6FF7008800CE040F26800E1
:1008A000C2F200000068C068008840F2DC01C2F2B9
:1008B00000010880FFE7704784B040F2D400C2F224
:1008C0000000006838B1FFE740F2E801C2F2000121
:1008D0000120086037E040F2E801C2F20001002088
:1008E000086040F2D800C2F200000068039003984C
:1008F000B0FA80F08DF80B009DF80B00C0F11F00DE
:100900000190019800EB800140F27000C2F20000FB
:1009100000EB8100009000994868406848600099A9
:1009200048680831884205D1FFE700994868406867
:100930004860FFE700984068C06840F26401C2F276
:1009400000010860FFE704B07047000080B588B080
:100950000020059040F2D400C2F200000068002898
:1009600040F00E81FFE740F2E601C2F20001088884
:100970000130ADF81200BDF812000880BDF8120079
:10098000C0B9FFE740F26802C2F2000210680390AB
:1009900040F26C01C2F20001086810600398086020
:1009A00040F2E001C2F20001086801300860FFF780
:1009B00065FF00E0FFE7BDF8120040F2DC01C2F283
:1009C000000109888842C0F2BA80FFE7FFE740F2E1
:1009D0006800C2F200000068006840B9FFE740F21A
:1009E000DC01C2F200014FF6FF700880A6E040F281
:1009F0006800C2F200000068C068C06807900798ED
:100A00008088ADF81A00BDF81200BDF81A108842AF
:100A100008DAFFE7BDF81A0040F2DC01C2F200017B
:100A200008808BE0FFE7079840690290079881688B
:100A3000C068886007998868C968486002984068FB
:100A400007990431884205D1FFE70798C0680299E9
:100A50004860FFE70799002048610299086801385B
:100A600008600798806AF8B1FFE70798806A0190EC
:100A70000798C169006A88600799C869096A48606F
:100A80000198406807991831884205D1FFE7079817
:100A9000006A01994860FFE7079900208862019980
:100AA00008680138086000E0FFE70798C16A012084
:100AB00000FA01F240F2D801C2F2000108681043C6
:100AC00008600798C06A00EB800040F27001C2F233
:100AD000000101EB8000406800900098079A906048
:100AE00000988068079AD06007980430009A92684E
:100AF000506007980430009A9060079AD06A00EB23
:100B0000800001EB800050610798C06A00EB800212
:100B100051F82200013041F822000798C06A40F2E3
:100B20006401C2F200010968C96A884203D9FFE77B
:100B30000120059000E0FFE7FFE748E7FFE740F20C
:100B40006400C2F200000068C06A00EB800140F25D
:100B50007000C2F2000050F82100022803D3FFE722
:100B60000120059000E0FFE740F2E800C2F200003B
:100B7000006818B1FFE70120059000E0FFE707E0FB
:100B800040F2E401C2F20001088801300880FFE76A
:100B9000059808B080BDF1EE100A4FF6FF71C0F263
:100BA000C03120EA010040F04070E1EE100A7047C9
:100BB000C00B000800000020F0060000C40100087F
:040000050800018965
:00000001FF
